:100000000C9491060C94A3060C94A3060C94A306DE
:100010000C94A3060C94A3060C94A3060C94A306BC
:100020000C94A3060C94870C0C94A3060C94A306C2
:100030000C94A3060C94A3060C94A3060C94A3069C
:100040000C94A3060C94A3060C94A3060C94A3068C
:100050000C94A3060C94A3060C94A3060C94A3067C
:100060000C94A3060C94A3060C94A3060C94A3066C
:100070000C94A3060C94A3060C941C130C94A306D6
:100080000C94A3060C94A3060C94A306446F6E650F
:10009000210A0020232323230A002323232320547F
:1000A0004553542023000A002043555252454E54D4
:1000B00020544F4F204849474821005741524E494C
:1000C0004E473A20534552564F200020207C43751E
:1000D0007220363A200020207C43757220353A2069
:1000E0000020207C43757220343A200020207C437D
:1000F000757220333A200020207C43757220323AFA
:10010000200043757220313A20002854686520632E
:100110006F6C6F72206F662074686520506F776512
:10012000724C45442077696C6C206368616E67652A
:100130003A290A00506C65617365207761746368C1
:100140002074686520506F7765724C454420616E5D
:1001500064207665726966792074686174206974B8
:10016000206C6967687473207570210A000A232364
:100170002320504F574552204F4E20544553542072
:100180002323230A00202D2D3E20455843454C4C67
:10019000454E54210A21005741524E494E473A20BC
:1001A000564F4C5441474520495320544F4F204C03
:1001B0004F570A00202D2D3E204F4B210A003A2098
:1001C000004D6561737572656D656E742023005016
:1001D0006572666F726D696E67203130206D656182
:1001E000737572656D656E74733A0A000A205072F9
:1001F00065737320454E54455220746F20737461AB
:1002000072742062617474657279206D65617375B2
:1002100072656D656E7473210A0A000A2323232018
:10022000566F6C746167652053656E736F722054EE
:10023000657374202323230A002323232054686535
:1002400020746573742069732072756E6E696E67B1
:10025000206E6F772120232323200A0A005468652B
:100260002042757A7A65722077696C6C20706565BA
:10027000702061206665772074696D6573210A00BE
:10028000506C65617365206C697374656E20746F62
:10029000207468652042757A7A657220616E6420E8
:1002A000766572696679210A0042757A7A657220EC
:1002B000546573740A00206D6F7665730A00536588
:1002C00072766F3A2000536572766F3A2031206D56
:1002D0006F7665730A0053657420537461727420DD
:1002E000506F736974696F6E3A200A000A20507269
:1002F00065737320454E54455220746F20737461AA
:10030000727420736572766F2074657374210A00AD
:1003100023232323232323232323232323232323AD
:10032000232323232323232323232323232323239D
:100330002323232323232323232323232323230AA6
:10034000004D616B6520737572652074686520735C
:100350006572766F6D6F746F72732063616E206D5E
:100360006F766520465245452120444F204E4F541C
:1003700020424C4F434B205448454D210A00232333
:100380002320415454454E54494F4E2121212044AD
:10039000414E474552212121205741524E494E4757
:1003A0002121210A0023232323232323232323235F
:1003B000232323232323232323232323232323230D
:1003C00023232323232323232323232323232323FD
:1003D000232323230A000A4175746F6D61746963D6
:1003E00020536572766F6D6F746F722074657374CD
:1003F0000A0A00507265737320454E5445522074AA
:100400006F2072657475726E20746F206D61696EF5
:100410002073637265656E0A0053756363657321AB
:100420000A000A57726974652076616C75657320DD
:10043000746F20454570726F6D2020202E2E2E2067
:100440002020000A00203D200044656661756C7420
:100450002076616C756520666F7220736572766FA9
:1004600020000A00506F736974696F6E3A2000694A
:100470006E636F727265637420636F6D6D616E641D
:100480000A004D696E75730A00506C75730A00534B
:10049000746F702028686F6C6429200A00454E44F0
:1004A0000A00506C6561736520656E746572207911
:1004B0006F75722063686F6963653A20682C702CD1
:1004C0006D2C6F6B206F7220780A0020232323236A
:1004D0000A00232323232043616C696272617465DF
:1004E00020536572766F20000A0A002064656661F9
:1004F000756C742076616C75652069733A200053C1
:100500006572766F2000506C6561736520656E744E
:10051000657220796F75722063686F6963653A2030
:10052000682C702C6D2C6F6B2C780A0023232323EE
:100530002043616C69627261746520536572766FE5
:1005400020312023232323230A00200A0A00456E9A
:1005500074657220783A202049742077696C6C2089
:1005600073746F702064652063616C69627261747A
:10057000696F6E2070726F6772616D0A00456E74EC
:100580006572206F6B3A2049662074686520736538
:1005900072766F207374616E647320696E20746864
:1005A0006520636F727265637420706F736974691C
:1005B0006F6E2C0A00456E746572206D3A202053D0
:1005C0006572766F20706F736974696F6E202D206D
:1005D0000A00456E74657220703A20205365727669
:1005E0006F20706F736974696F6E202B20200A0072
:1005F000456E74657220683A202053746F702074C1
:10060000686520736572766F206D6F76656D656EB7
:10061000742028686F6C64290A00596F7520636123
:100620006E2075736520746865206E657874206B24
:1006300065797320746F206368616E6765207468E4
:100640006520706F736974696F6E3A0A0028636879
:1006500061707465723A2063616C69627261746979
:100660006F6E290A0A0074686520726F626F7420C9
:1006700061726D20696E207468652073616D6520FC
:10068000706F736974696F6E206173207468652080
:100690007069637475726520696E20746865206D79
:1006A000616E75616C0A00546F2063616C696272DF
:1006B0006174652074686520726F626F7420617266
:1006C0006D20696E20746865207269676874207097
:1006D0006F736974696F6E2C20796F75206861760D
:1006E0006520746F2063616C696272617465200AB1
:1006F00000232323232043616C6962726174696F54
:100700006E2023232323230A002023232323204591
:100710006E642023232323230A0A00232323205447
:10072000686520746573742069732072756E6E69D4
:100730006E67206E6F772120232323200A0A005042
:100740007265737320454E54455220746F20726554
:100750007475726E20746F206D61696E20736372A0
:1007600065656E210A0A00232323232043757272D4
:10077000656E74204D6561737572696E6720232301
:100780002323230A002323232320537461727470CC
:100790006F736974696F6E20526F626F7461726DEE
:1007A00023232323230A00596F75206E6565642077
:1007B000746F20656E74657220612073696E676C5A
:1007C00065206E756D6265722066726F6D203020D7
:1007D000746F20342C20632C206D206F72206221D6
:1007E00000232323232323232323232323232323FC
:1007F00023232323232323232323232323232323C9
:1008000023232323232323232323232323232323B8
:1008100023232323232323232323232323232323A8
:100820002323232323230A002320506C656173654F
:1008300020656E74657220796F75722063686F69C8
:1008400063652028302D342C20632C206D206F729E
:10085000206229212020202020202020202020204C
:10086000202020202020202020202020230A0023B8
:100870002323232323232323232323232323232348
:100880002323232323232323232323232323232338
:100890002323232323232323232323232323232328
:1008A0002323232323232323232323232323232318
:1008B000232323230A00232020202020202020205F
:1008C0002020202020202020202020202020202028
:1008D0002020202020202020232020202020202015
:1008E0002020202020202020202020202020202008
:1008F00020202020202020202020230A002020202B
:1009000020202020230A00232034202D205365722C
:10091000766F205465737420202020202020202012
:10092000202020202020202020232053797374654C
:100930006D20766F6C746167652069733A200023BF
:100940002033202D2042757A7A65722054657374A5
:100950002020202020202020202020202020202097
:100960002023202020202020202020202020202084
:100970002020202020202020202020202020202077
:10098000202020230A00232032202D20566F6C7453
:100990006167652053656E736F72205465737420B0
:1009A0002020202020202020232062202D2053746E
:1009B00061727420506F736974696F6E20202020FB
:1009C00020202020202020202020230A0023203146
:1009D000202D204C45442054657374202020202075
:1009E0002020202020202020202020202020202304
:1009F000206D202D2043757272656E74204D6561E7
:100A0000737572696E6720536572766F732020204C
:100A100020230A00232030202D2052756E20414CC7
:100A20004C2053656C6674657374732028312D34C3
:100A3000292020202020232063202D2043616C6961
:100A4000627261746520526F626F7461726D2020F2
:100A50002020202020202020230A002320202020C6
:100A60002020202020202020202020202020202086
:100A70002020202020202020202020202023202073
:100A80002020202020202020202020202020202066
:100A90002020202020202020202020202020202353
:100AA0000A002323232323202020202020204D61FF
:100AB000696E204D656E752020202020202020208A
:100AC00023232323232323232320202020202041EA
:100AD0006476616E636564204D656E75202020200C
:100AE000202023232323230A002323232323232318
:100AF00023232323232323232323232323232323C6
:100B000023232323232323232323232323232323B5
:100B100023232323232323232323232323232323A5
:100B200023232323232323232323232323230A00D1
:100B3000232323232323232323202020202020209A
:100B40002020202020202020526F626F7461726D5F
:100B50002053656C6674657374202020202020204B
:100B60002020202020202020202020202323232379
:100B700023232323230A0023232323232323232381
:100B80002323232323232323232323232323232335
:100B90002323232323232323232323232323232325
:100BA0002323232323232323232323232323232315
:100BB0002323232323232323232323230A005072C5
:100BC00065737320454E54455220746F20636F6ED9
:100BD00074696E7565210A002323232323232323AD
:100BE00023232323232323232323232323232323D5
:100BF00023232323232323232323232323232323C5
:100C000023232323232323232323232323232323B4
:100C1000232323232323232323232323230A0A00F9
:100C20000A0032292043616C696272617465207424
:100C3000686520726F626F7461726D207365727681
:100C40006F6D6F746F7273200A00312920547970B0
:100C5000652027432720696E206D61696E206D65D0
:100C60006E75206F662073656C667465737420748E
:100C70006F2063616C69627261746520726F626F6C
:100C80007461726D0A004669727374207573652011
:100C9000526F626F7461726D21200A000A00232373
:100CA0002320415454454E54494F4E212121204484
:100CB000414E474552212121205741524E494E472E
:100CC0002121210A00232323232323232323232336
:100CD00023232323232323232323232323232323E4
:100CE00023232323232323232323232323232323D4
:100CF00023232323232323232323232323232323C4
:100D0000232323232323232323230A000A20526F90
:100D1000626F7461726D2053656C66746573740ADA
:100D2000000011241FBECFEFD0E1DEBFCDBF11E028
:100D3000A0E0B1E001C01D92A435B107E1F70E9427
:100D4000AD0B0C94C4150C940000DF93CF93CDB77A
:100D5000DEB78CE890E00E945912CF91DF910895A0
:100D6000DF93CF9300D0CDB7DEB78A838AE00E94AD
:100D7000251212C085E4898306C083E20E942512F1
:100D800089818150898389818823B9F78AE00E940B
:100D900025128A8181508A838A81882359F70F908E
:100DA0000F90CF91DF910895DF93CF930F92CDB73E
:100DB000DEB7898382E00E94B0068AE990E00E9453
:100DC00059128981882F90E06AE00E94B21283E96B
:100DD00090E00E9459120F90CF91DF910895DF9318
:100DE000CF9300D0CDB7DEB79A83898389819A816A
:100DF000CC01A0E0B0E0BC01CD010E94C114DC0137
:100E0000CB01BC01CD012DEC3CEC4CE453E40E9441
:100E10002814DC01CB01BC01CD012DEC3CEC4CECE9
:100E20005DE30E94C413DC01CB01BC01CD010E9433
:100E30009014DC01CB016AE042E00E94D7128EE2FE
:100E40000E94251289819A81CC01A0E0B0E0BC010A
:100E5000CD010E94C114DC01CB01BC01CD012FE604
:100E600032E143E050E40E942814DC01CB01BC01D4
:100E7000CD0120E030E040E251E40E94C413DC01E7
:100E8000CB01BC01CD010E949014DC01CB016AE0D2
:100E900042E00E94D71286E50E9425120F900F9023
:100EA000CF91DF910895DF93CF9300D000D000D091
:100EB000CDB7DEB79A8389837C836B835E834D8352
:100EC0008BEB90E00E94591289819A816AE041E09F
:100ED0000E94D71288EA90E00E94591286EA90E0B8
:100EE0000E94591226960FB6F894DEBF0FBECDBFF2
:100EF000CF91DF910895DF93CF93CDB7DEB780E038
:100F000090E00E94EC0E909311018093100182E01A
:100F100091E00E94591280911001909111016AE0B4
:100F200043E00E94D71281E090E00E94EC0E909383
:100F300013018093120187EF90E00E945912809173
:100F40001201909113016AE043E00E94D71282E0FF
:100F500090E00E94EC0E90931701809316018CEEA6
:100F600090E00E94591280911601909117016AE059
:100F700043E00E94D71283E090E00E94EC0E909331
:100F80000F0180930E0181EE90E00E945912809132
:100F90000E0190910F016AE043E00E94D71284E0B5
:100FA00090E00E94EC0E909329018093280186ED39
:100FB00090E00E94591280912801909129016AE0E5
:100FC00043E00E94D71285E090E00E94EC0E9093DF
:100FD0001501809314018BEC90E00E9459128091CE
:100FE0001401909115016AE043E00E94D7128AE053
:100FF0000E94251280911001909111018D3391056D
:101000005CF0209110013091110181E090E0B90174
:101010004CE350E00E94530780911201909113011C
:101020008D3391055CF0209112013091130182E023
:1010300090E0B9014CE350E00E9453078091160103
:10104000909117018D3391055CF02091160130913C
:10105000170183E090E0B9014CE350E00E94530790
:1010600080910E0190910F01813591055CF02091E6
:101070000E0130910F0184E090E0B90140E550E0AD
:101080000E94530780912801909129018739910589
:101090005CF0209128013091290185E090E0B901B0
:1010A00046E950E00E945307809114019091150188
:1010B000873991055CF0209114013091150186E08B
:1010C00090E0B90146E950E00E945307CF91DF91CB
:1010D0000895DF93CF93CDB7DEB781E00E94D406A9
:1010E0008DE691E00E94591284E391E00E9459122A
:1010F0008AE091E00E9459120E943E0D80ED97E037
:101100000E94AA0D0E94530D80ED97E00E94AA0D47
:101110000E94680D80ED97E00E94AA0D0E947D0D4F
:101120000E94A506CF91DF910895DF93CF9300D061
:101130000F92CDB7DEB782E00E94D4068BE192E039
:101140000E9459128CEE91E00E94591228E131E080
:1011500081E0B9010E94AB138FEC91E00E9459121B
:1011600081E0898345C081EC91E00E945912898118
:10117000882F90E06AE00E94B2128EEB91E00E940C
:10118000591286E090E00E94EC0E9B838A838A814C
:101190009B810E94EF068A819B8122E08A38920718
:1011A00058F08A819B8123E08D3F920728F484EBDD
:1011B00091E00E94591215C08A819B8122E08A38F1
:1011C000920728F487E991E00E9459120AC08A81A7
:1011D0009B8123E08D3F920720F085E891E00E94FB
:1011E000591282E390E00E94AA0D89818F5F898362
:1011F00089818B3008F4B7CF84EF91E00E94AA0D6B
:101200000E94A5060F900F900F90CF91DF91089547
:10121000DF93CF93CDB7DEB783E00E94D40689EA8F
:1012200092E00E94591280E892E00E9459128DE5E6
:1012300092E00E94591289E392E00E9459120E94A2
:10124000CB0D88EC90E00E94AA0D0E94D60D88E597
:1012500092E00E94AA0D0E94CB0D80E991E00E94CD
:10126000AA0D0E94D60D88E592E00E94AA0D0E9468
:10127000CB0D80E293E00E94AA0D0E94D60D88E576
:1012800092E00E94AA0D0E94A506CF91DF910895D9
:10129000DF93CF9300D000D0CDB7DEB784E00E94BB
:1012A000D40686ED93E00E94591285EA93E00E94ED
:1012B00059128EE793E00E94591281E493E00E9454
:1012C000591280E193E00E9459128CEE92E00E9444
:1012D000591228E131E081E0B9010E94AB1386ED9B
:1012E00092E00E9459120E94E40F0E94C80F86ECFF
:1012F00092E00E9459120E947B0781E060E77EEF36
:1013000042E050E00E94A6100E947B0781E060E06E
:1013100070E042E050E00E94A6100E947B0788EC3B
:1013200090E00E94AA0D82E090E09A83898338C001
:101330008EEB92E00E94591289819A816AE00E94A4
:10134000B21286EB92E00E94591289819A81880F2D
:10135000991FFC01E050FF4F808191819C838B831A
:101360000E947B07898164EF71E042E050E00E94B7
:10137000A6100E947B0789816CE07EEF42E050E07E
:101380000E94A6100E947B07898160E070E042E025
:1013900050E00E94A61089819A8101969A838983E0
:1013A00089819A81873091051CF20E94D60F0E9494
:1013B000A5060F900F900F900F90CF91DF91089599
:1013C000DF93CF93CDB7DEB727970FB6F894DEBF84
:1013D0000FBECDBF0E94C80F80912D018160809308
:1013E0002D011F8281E090E09E838D831C821B82F1
:1013F00081EF96E00E94591287EA96E00E94591206
:1014000086E696E00E9459128DE496E00E945912F9
:101410008AE196E00E94591280EF95E00E945912ED
:1014200082ED95E00E94591285EB95E00E945912D9
:101430008DE795E00E9459128EE495E00E945912C2
:101440008AE495E00E94591282E00E9458138CE2CF
:1014500095E00E94591286E095E00E9459128CEDA9
:1014600095E09093030180930201D3C080914101E4
:10147000882309F495C088E191E00E94741380915B
:1014800018018F3609F05CC0809119018B3609F084
:1014900057C04D815E818B819C8184529A4F9C0103
:1014A000CA01880F991FFC01E050FF4F3183208350
:1014B0008FEF94E00E9459128D819E816AE00E9414
:1014C000B2128BEE94E00E9459128D819E81880F9A
:1014D000991FFC01E050FF4F808191816AE00E94DA
:1014E000B21288EE94E00E9459128D819E8101967D
:1014F0009E838D838D819E81873091050CF04DC038
:101500008D819E81880F991FFC01E050FF4F8CED6B
:1015100095E0918380831C821B821F8282ED94E080
:101520000E9459128D819E816AE00E94B2128BEC5A
:1015300094E00E94591282EA94E00E9459122DC050
:1015400080911801883729F48DE994E00E9459129E
:1015500066C080911801883631F41F828FE894E0CC
:101560000E9459121AC080911801803739F489E815
:1015700094E00E94591281E08F830FC0809118017E
:101580008D3639F482E894E00E94591282E08F830C
:1015900004C08FE694E00E94591282E00E94581322
:1015A0008F81813031F48B819C8101969C838B8368
:1015B00008C08F81823029F48B819C8101979C83A4
:1015C0008B838D812B813C81B9010E941B108FE0A0
:1015D00090E00E94AA0D80912E0190912F0123E0AE
:1015E000893E9207B0F08F81882399F084E694E0D9
:1015F0000E9459128B819C8184529A4F6AE00E940A
:10160000B21282E694E00E94591210922F011092B9
:101610002E018D819E81873091050CF427CF81E0CA
:1016200090E09A83898322C089E494E00E94591251
:1016300089819A816AE00E94B21285E494E00E9456
:10164000591289819A81880F991FFC01E050FF4F40
:10165000808191816AE00E94B21283E494E00E944A
:10166000591289819A8101969A83898329813A81C5
:101670008D819E8128173907BCF282E294E00E9496
:1016800059120E94520F89E194E00E9459120E945F
:10169000D60F80912D018E7F80932D0183EF93E0F3
:1016A0000E94591228E131E081E0B9010E94AB1398
:1016B00027960FB6F894DEBF0FBECDBFCF91DF9156
:1016C0000895DF93CF93CDB7DEB782E00E94B006D6
:1016D00087E697E00E9459128FE397E00E94591223
:1016E0008BE197E00E94591281E00E9458130E94FA
:1016F000E40F0E94C80F80914101882369F088E1BE
:1017000091E00E9474130E94D60F89E097E00E9436
:101710005912CF91DF9108950E947B0784EF91E0E9
:101720000E94AA0DE8CFDF93CF93CDB7DEB782E05A
:101730000E94B00685E897E00E9459120E94E40FCB
:101740000E94C80F88EB9BE00E94AA0D0E94D60F52
:101750000E94A506CF91DF910895DF93CF9300D02B
:101760000F92CDB7DEB719820E9485118CE09DE003
:101770000E94591285EC9CE00E9459128EE99CE06F
:101780000E9459128CE99CE00E94591286E89CE064
:101790000E9459128AE49CE00E94591282E29CE065
:1017A0000E94591280E29CE00E94591288ED9BE051
:1017B0000E9459128EEB9BE00E94591228E131E001
:1017C00081E0B9010E94AB138AE00E94251287E7ED
:1017D0009BE00E94591280E39BE00E94591289EE1F
:1017E0009AE00E94591282EA9AE00E9459128BE50F
:1017F0009AE00E94591284E19AE00E9459128DECFD
:1018000099E00E94591286E899E00E9459128FE3EC
:1018100099E00E94591287E099E00E94591286E0EF
:1018200090E00E94EC0E0E94EF068DEF98E00E947F
:10183000591286EB98E00E9459128FE698E00E94B8
:10184000591288E298E00E94591281EE97E00E94B6
:10185000591228E131E081E0B9010E94AB13809177
:1018600018018053898380911801833611F40E94F6
:10187000E009809118018D3611F40E94610B80916E
:101880001801823619F40E94930B9ECF898189300A
:1018900028F087EA97E00E94591296CF8981282F75
:1018A00030E03B832A838A819B818230910531F12C
:1018B0002A813B812330310554F48A819B81009732
:1018C00089F02A813B8121303105A9F07DCF8A81C1
:1018D0009B8183309105A9F02A813B812430310519
:1018E00099F072CF0E9469080E9495080E94080929
:1018F0000E94480969CF0E94690866CF0E94950836
:1019000063CF0E94080960CF0E9448095DCF1F92F3
:101910000F920FB60F9211248F939F93DF93CF9363
:1019200000D0CDB7DEB780913E0190913F01019686
:1019300090933F0180933E01809140018A831982F8
:101940008A818A3010F081E089838A818F5F809359
:1019500040018981882309F486C080912D01882F58
:1019600090E081709070882349F080912E019091D1
:101970002F01019690932F0180932E0180912D01CC
:10198000882F90E082709070009749F0809130012C
:1019900090913101019690933101809330018091B3
:1019A0002D01882F90E084709070009749F080910D
:1019B000320190913301019690933301809332016B
:1019C00080912D01882F90E088709070009749F0E9
:1019D0008091340190913501019690933501809367
:1019E000340180912D01882F90E0807190700097D4
:1019F00049F080913601909137010196909337011B
:101A00008093360180912D01882F90E08072907034
:101A1000009749F080913801909139010196909397
:101A200039018093380180912D01882F90E08074D6
:101A30009070009749F080913A0190913B01019696
:101A400090933B0180933A0180912D0188234CF4BF
:101A500080913C0190913D01019690933D018093CE
:101A60003C01109240010F900F90CF91DF919F9118
:101A70008F910F900FBE0F901F901895DF93CF930B
:101A8000CDB7DEB7A5E6B0E0E5E6F0E080818160A5
:101A90008C93A5E6B0E0E5E6F0E080818D7F8C9345
:101AA000CF91DF910895DF93CF93CDB7DEB7A5E651
:101AB000B0E0E5E6F0E080818E7F8C93A5E6B0E0B3
:101AC000E5E6F0E0808182608C93CF91DF9108950C
:101AD000DF93CF93CDB7DEB7A5E6B0E0E5E6F0E063
:101AE000808181608C93A5E6B0E0E5E6F0E080813E
:101AF00082608C93CF91DF910895DF93CF93CDB720
:101B0000DEB7A5E6B0E0E5E6F0E080818E7F8C935D
:101B1000A5E6B0E0E5E6F0E080818D7F8C93CF9183
:101B2000DF910895DF93CF930F92CDB7DEB789830E
:101B300010923F0110923E018981282F30E0809160
:101B40003E0190913F0182179307B0F30F90CF9120
:101B5000DF910895DF93CF9300D00F92CDB7DEB71A
:101B60009A83898303C08AE00E94920D1B82898137
:101B70009A81009711F081E08B8389819A81019786
:101B80009A8389838B81882371F70F900F900F9030
:101B9000CF91DF910895DF93CF93CDB7DEB7E3E523
:101BA000F0E08AE68083CF91DF910895DF93CF93B1
:101BB000CDB7DEB7E3E5F0E08AE48083CF91DF9133
:101BC0000895DF93CF9300D0CDB7DEB79A83898392
:101BD000E1E5F0E0898180830F900F90CF91DF9154
:101BE0000895DF93CF93CDB7DEB728970FB6F8945B
:101BF000DEBF0FBECDBFEBE3F0E080E1808382E08B
:101C000090E00E94AA0D81E090E09C838B83E9E341
:101C1000F0E08081882F90E09A8389831E821D8264
:101C20001EC029813A818B819C81282339238B8195
:101C30009C812817390741F48D819E819C012F5F7B
:101C40003F4F38872F83BDC08B819C81880F991FA0
:101C50009C838B838D819E8101969E838D838D8154
:101C60009E8184309105ECF2EBE3F0E080E280832A
:101C700082E090E00E94AA0D81E090E09C838B833B
:101C8000E9E3F0E08081882F90E09A8389831E82C7
:101C90001D821EC029813A818B819C812823392392
:101CA0008B819C812817390741F48D819E819C018D
:101CB0002B5F3F4F38872F8384C08B819C81880F97
:101CC000991F9C838B838D819E8101969E838D833A
:101CD0008D819E8184309105ECF2EBE3F0E080E4AD
:101CE000808382E090E00E94AA0D81E090E09C83D6
:101CF0008B83E9E3F0E08081882F90E09A838983E9
:101D00001E821D821EC029813A818B819C812823DD
:101D100039238B819C812817390741F48D819E815D
:101D20009C01275F3F4F38872F834BC08B819C815D
:101D3000880F991F9C838B838D819E8101969E8342
:101D40008D838D819E8184309105ECF2EBE3F0E090
:101D500080E8808382E090E00E94AA0D81E090E01C
:101D60009C838B83E9E3F0E08081882F90E09A8365
:101D700089831E821D821EC029813A818B819C81AC
:101D8000282339238B819C812817390741F48D81C1
:101D90009E819C01235F3F4F38872F8312C08B8128
:101DA0009C81880F991F9C838B838D819E810196D6
:101DB0009E838D838D819E8184309105ECF21886FF
:101DC0001F828F81988528960FB6F894DEBF0FBECC
:101DD000CDBFCF91DF910895DF93CF93CDB7DEB71D
:101DE00028970FB6F894DEBF0FBECDBF98878F83BC
:101DF0001E821D821C821B821A821982E4E2F0E09C
:101E00001082E5E2F0E01082A7E2B0E0E7E2F0E065
:101E10008081807E8C93A7E2B0E0E7E2F0E08081F1
:101E2000982F8F81892B8C938AE090E00E94AA0DD5
:101E3000A6E2B0E0E6E2F0E0808180648C93E6E226
:101E4000F0E08081882F90E0807190700097B9F366
:101E5000A6E2B0E0E6E2F0E0808180618C93E4E20B
:101E6000F0E08081882F90E09E838D83E5E2F0E0B2
:101E70008081882F90E09C838B838B819C81382F7D
:101E800022278D819E81822B932B9A83898389813E
:101E90009A8128960FB6F894DEBF0FBECDBFCF91C2
:101EA000DF910895DF93CF93CDB7DEB780E091E067
:101EB00020E030E0B9014EE050E00E948915CF915A
:101EC000DF910895DF93CF93CDB7DEB780E091E047
:101ED00020E030E0B9014EE050E00E947915809199
:101EE0000201909103012FEF8F3F920731F48CEDA7
:101EF00095E09093030180930201809104019091F9
:101F000005012FEF8F3F920731F48CED95E0909310
:101F100005018093040180910601909107012FEF44
:101F20008F3F920731F48CED95E0909307018093F9
:101F3000060180910801909109012FEF8F3F9207D0
:101F400031F48CED95E09093090180930801809124
:101F50000A0190910B012FEF8F3F920731F48CED26
:101F600095E090930B0180930A0180910C01909170
:101F70000D012FEF8F3F920731F48CED95E0909398
:101F80000D0180930C010E94E40FCF91DF91089521
:101F9000DF93CF93CDB7DEB7A5E6B0E0E5E6F0E09E
:101FA0008081877F8C93CF91DF910895DF93CF93CA
:101FB000CDB7DEB7A5E6B0E0E5E6F0E08081886069
:101FC0008C93CF91DF910895DF93CF93CDB7DEB798
:101FD000EAE4F0E080910201909103019183808313
:101FE000E8E4F0E080910401909105019183808301
:101FF000E8E7F0E0809106019091070191838083EA
:10200000E6E8F0E0809108019091090191838083D6
:10201000E4E8F0E080910A0190910B0191838083C4
:10202000E2E8F0E080910C0190910D0191838083B2
:10203000CF91DF910895DF93CF9300D000D00F921E
:10204000CDB7DEB789837B836A838981282F30E00F
:102050003D832C838C819D8183309105E1F12C811E
:102060003D81243031055CF48C819D818130910566
:10207000C1F02C813D812230310501F15FC08C819E
:102080009D818530910509F440C02C813D8125302A
:10209000310574F18C819D818630910509F442C02F
:1020A0004DC0EAE4F0E020910201309103018A8101
:1020B0009B81820F931F9183808340C0E8E4F0E00E
:1020C00020910401309105018A819B81820F931F29
:1020D0009183808333C0E8E7F0E0209106013091DE
:1020E00007018A819B81820F931F9183808326C081
:1020F000E6E8F0E020910801309109018A819B8196
:10210000820F931F9183808319C0E4E8F0E020914F
:102110000A0130910B018A819B81820F931F918369
:1021200080830CC0E2E8F0E020910C0130910D01B9
:102130008A819B81820F931F918380830F900F90E0
:102140000F900F900F90CF91DF910895DF93CF9371
:10215000CDB7DEB729970FB6F894DEBF0FBECDBF5F
:102160008B837D836C835F834E838CE89AE09A83B4
:1021700089838B81282F30E03987288748855985C6
:102180004330510509F440C0888599858430910514
:102190005CF42885398521303105C1F048855985A1
:1021A0004230510511F16BC08885998585309105C4
:1021B00009F448C02885398525303105A4F14885C2
:1021C00059854630510509F44CC059C0EAE4F0E0A5
:1021D000208131818091020190910301A901481B66
:1021E000590BCA019A8389834AC0E8E4F0E0208150
:1021F00031818091040190910501A901481B590B7F
:10220000CA019A8389833BC0E8E7F0E020813181ED
:102210008091060190910701A901481B590BCA0141
:102220009A8389832CC0E6E8F0E020813181809197
:10223000080190910901A901481B590BCA019A8311
:1022400089831DC0E4E8F0E02081318180910A019A
:1022500090910B01A901481B590BCA019A838983EC
:102260000EC0E2E8F0E02081318180910C01909174
:102270000D01A901481B590BCA019A838983298141
:102280003A818C819D8182179307C4F40FC08981A4
:102290009A8101979A83898329813A818B81B90137
:1022A0000E941B108E819F810E94AA0D29813A8174
:1022B0008C819D818217930754F31EC029813A8136
:1022C0008C819D8128173907BCF40FC089819A81C0
:1022D00001969A83898329813A818B81B9010E9471
:1022E0001B108E819F810E94AA0D29813A818C81C9
:1022F0009D812817390754F329960FB6F894DEBF4D
:102300000FBECDBFCF91DF910895DF93CF93CDB7AF
:10231000DEB7EBE3F0E01082E8E3F0E01082E5E303
:10232000F0E01082E2E3F0E01082E3E2F0E01082FD
:10233000E2E6F0E01082E5E6F0E088E08083EAE3A0
:10234000F0E080EF8083E7E3F0E08FEF8083E4E369
:10235000F0E08CEF8083E1E3F0E08BE08083E2E269
:10236000F0E08AEF8083E1E6F0E01082E4E6F0E05E
:102370008FE18083F894E7E2F0E080EC8083E6E28E
:10238000F0E083EE8083EEE8F0E01082E3E5F0E039
:102390008AE48083E1E5F0E08FEF8083E5E4F0E01C
:1023A0008AE08083E3E4F0E08CEC8083EFE4F0E00B
:1023B00088EA8083EEE4F0E082E18083E6E4F0E006
:1023C00080E090E591838083EDE4F0E01082ECE41E
:1023D000F0E01082EBE8F0E088EA8083EAE8F0E0E1
:1023E00082E18083E0E8F0E080E090E59183808303
:1023F000E9E8F0E01082E8E8F0E010820E94620F65
:10240000E8E9F0E01082E9E9F0E089E18083EBE9B6
:10241000F0E01082EDE9F0E086E08083EAE9F0E0A8
:1024200088E98083A7E5B0E0E7E5F0E08081806897
:102430008C9378940E943E0D88EE93E00E94AA0D42
:102440000E94530DCF91DF910895DF93CF930F92A8
:10245000CDB7DEB78983EBE9F0E08081882F90E08B
:10246000807290700097B9F3ECE9F0E08981808385
:102470000F90CF91DF910895DF93CF9300D0CDB728
:10248000DEB79A8389830BC0E981FA812081898133
:102490009A8101969A838983822F0E942512E9816D
:1024A000FA818081882381F70F900F90CF91DF917F
:1024B0000895DF93CF9300D000D000D0CDB7DEB722
:1024C0009E838D8303C08C810E9425128D819E8105
:1024D0009B838A838D819E8101969E838D83EA8171
:1024E000FB818491898389818C838C81882359F72E
:1024F00026960FB6F894DEBF0FBECDBFCF91DF9109
:102500000895DF93CF9300D000D0CDB7DEB79A8384
:1025100089836B834C838C81282F30E089819A8159
:10252000820F931F9A8389830EC0E981FA812081EB
:1025300089819A8101969A838983822F0E9425122C
:102540008B8181508B83E981FA818081882319F006
:102550008B81882351F70F900F900F900F90CF91A0
:10256000DF910895DF93CF93CDB7DEB764970FB6B1
:10257000F894DEBF0FBECDBF9B8B8A8B6C8B8C8992
:10258000482F50E08A899B899E012F5F3F4FB901F8
:102590000E945815CE0101960E943C1264960FB617
:1025A000F894DEBF0FBECDBFCF91DF910895DF93CA
:1025B000CF93CDB7DEB766970FB6F894DEBF0FBEE8
:1025C000CDBF9C8B8B8B6D8B4E8B8D89482F50E0B4
:1025D0008B899C899E012E5F3F4FB9010E9458153F
:1025E000CE0102960E944F15982F8E89891B8983F0
:1025F000898118167CF406C089818150898380E323
:102600000E94251289811816BCF3CE0102960E9401
:102610003C1209C089818195282FCE0102966E89CE
:10262000422F0E94811266960FB6F894DEBF0FBE4D
:10263000CDBFCF91DF9108951F920F920FB60F92E9
:1026400011242F933F938F939F93EF93FF93DF93E7
:10265000CF930F92CDB7DEB7ECE9F0E080818983AC
:10266000809141018823B1F430914301832F90E0A0
:102670002981FC01EC5BFE4F2083832F8F5F8093C9
:1026800043019091430180914201981718F082E034
:10269000809341010F90CF91DF91FF91EF919F9136
:1026A0008F913F912F910F900FBE0F901F90189513
:1026B000DF93CF930F92CDB7DEB78983109243019A
:1026C000898180934201109241010F90CF91DF9157
:1026D0000895DF93CF93CDB7DEB780914101882372
:1026E000E1F3CF91DF910895DF93CF9300D00F9264
:1026F000CDB7DEB79B838A83198213C08981282FC7
:1027000030E08A819B81DC01A20FB31F8981882F71
:1027100090E0FC01EC5BFE4F80818C9389818F5FA0
:102720008983909142018981891740F381E08093E8
:1027300041010F900F900F90CF91DF910895DF939B
:10274000CF93CDB7DEB71092420181E08093410173
:10275000CF91DF910895DF93CF9300D00F92CDB743
:10276000DEB789837B836A8389810E9458130E9424
:1027700069138A819B810E9474130F900F900F90B0
:10278000CF91DF9108955058BB27AA270ED04DC195
:102790003ED130F043D120F031F49F3F11F41EF4CC
:1027A00033C10EF4E095E7FB29C1E92F4FD180F347
:1027B000BA17620773078407950718F071F49EF53E
:1027C00067C10EF4E0950B2EBA2FA02D0B01B901B5
:1027D00090010C01CA01A0011124FF27591B99F097
:1027E000593F50F4503E68F11A16F040A22F232FA3
:1027F000342F4427585FF3CF469537952795A795F3
:10280000F0405395C9F77EF41F16BA0B620B730B99
:10281000840BBAF09150A1F0FF0FBB1F661F771F0A
:10282000881FC2F70EC0BA0F621F731F841F48F4BF
:10283000879577956795B795F7959E3F08F0B3CF45
:102840009395880F08F09927EE0F9795879508952F
:102850000CD0EBC0E3D040F0DAD030F021F45F3F91
:1028600019F0CCC0511115C1CFC0F0D098F3992305
:10287000C9F35523B1F3951B550BBB27AA27621744
:102880007307840738F09F5F5F4F220F331F441F89
:10289000AA1FA9F333D00E2E3AF0E0E830D09150C1
:1028A0005040E695001CCAF729D0FE2F27D0660FAE
:1028B000771F881FBB1F261737074807AB07B0E8ED
:1028C00009F0BB0B802DBF01FF2793585F4F2AF003
:1028D0009E3F510568F092C0DCC05F3FECF3983E2C
:1028E000DCF3869577956795B795F7959F5FC9F760
:1028F000880F911D9695879597F90895E1E0660FE9
:10290000771F881FBB1F621773078407BA0720F061
:10291000621B730B840BBA0BEE1F88F7E0950895CA
:1029200004D06894B111B5C0089598D088F09F572D
:1029300090F0B92F9927B751A0F0D1F0660F771F0B
:10294000881F991F1AF0BA95C9F712C0B13081F0EB
:102950009FD0B1E008959CC0672F782F8827B85F7B
:1029600039F0B93FCCF3869577956795B395D9F74C
:102970003EF490958095709561957F4F8F4F9F4F56
:102980000895E89409C097FB3EF490958095709562
:1029900061957F4F8F4F9F4F9923A9F0F92F96E9AB
:1029A000BB279395F695879577956795B795F11120
:1029B000F8CFFAF4BB0F11F460FF1BC06F5F7F4FBD
:1029C0008F4F9F4F16C0882311F096E911C07723CF
:1029D00021F09EE8872F762F05C0662371F096E8D8
:1029E000862F70E060E02AF09A95660F771F881FA7
:1029F000DAF7880F9695879597F9089597F99F6765
:102A000080E870E060E008959FEF80EC0895002476
:102A10000A941616170618060906089500240A9443
:102A200012161306140605060895092E0394000CC9
:102A300011F4882352F0BB0F40F4BF2B11F460FF58
:102A400004C06F5F7F4F8F4F9F4F089557FD905881
:102A5000440F551F59F05F3F71F04795880F97FB62
:102A6000991F61F09F3F79F087950895121613061C
:102A70001406551FF2CF4695F1DF08C0161617064B
:102A80001806991FF1CF8695710561050894089580
:102A9000E894BB2766277727CB0197F90895FC01B7
:102AA00001900020E9F7809590958E0F9F1F089563
:102AB000FB019F01E8944230C4F04532B4F44A303F
:102AC00029F497FB1EF4909581959F4F642F7727EB
:102AD0000E94B015805D8A330CF0895D8193CB0133
:102AE0000097A1F716F45DE251931082C9010C948E
:102AF000A015DC01CB01FC01E199FECF06C0FFBBB4
:102B0000EEBBE09A31960DB20D9241505040B8F7AD
:102B10000895DC01CB0103C02D910E949415415012
:102B20005040D0F70895262FE199FECF9FBB8EBB72
:102B30002DBB0FB6F894E29AE19A0FBE0196089564
:102B4000DC01FC01672F71917723E1F7329704C014
:102B50007C916D9370836291AE17BF07C8F308959F
:102B6000AA1BBB1B51E107C0AA1FBB1FA617B707B3
:102B700010F0A61BB70B881F991F5A95A9F78095CF
:0C2B80009095BC01CD010895F894FFCFA2
:00000001FF
