:100000000C94CD010C94DF010C94DF010C94DF0102
:100010000C94DF010C94DF010C94DF010C94DF01E0
:100020000C94DF010C9466030C94DF010C94DF0147
:100030000C94DF010C94DF010C94DF010C94DF01C0
:100040000C94DF010C94DF010C94DF010C94DF01B0
:100050000C94DF010C94DF010C94DF010C94DF01A0
:100060000C94DF010C94DF010C94DF010C94DF0190
:100070000C94DF010C94DF010C94FB090C94DF015C
:100080000C94DF010C94DF010C94DF01506C65616E
:1000900073652070726573732027782720746F2032
:1000A000726573746172740A0053756363657321BA
:1000B0000A000A57726974652076616C7565732051
:1000C000746F20454570726F6D2020202E2E2E20DB
:1000D0002020000A00203D200044656661756C7494
:1000E0002076616C756520666F7220736572766F1D
:1000F00020000A00506F736974696F6E3A200069BE
:100100006E636F727265637420636F6D6D616E6490
:100110000A004D696E75730A00506C75730A0053BE
:10012000746F702028686F6C6429200A00454E4463
:100130000A00506C6561736520656E746572207984
:100140006F75722063686F6963653A20682C702C44
:100150006D2C6F6B206F7220780A002023232323DD
:100160000A00232323232043616C69627261746552
:1001700020536572766F20000A0A0020646566616C
:10018000756C742076616C75652069733A20005334
:100190006572766F2000506C6561736520656E74C2
:1001A000657220796F75722063686F6963653A20A4
:1001B000682C702C6D2C6F6B2C780A002323232362
:1001C0002043616C69627261746520536572766F59
:1001D00020312023232323230A00200A0A00456E0E
:1001E00074657220783A202049742077696C6C20FD
:1001F00073746F702064652063616C6962726174EE
:10020000696F6E2070726F6772616D0A00456E745F
:100210006572206F6B3A20496620746865207365AB
:1002200072766F207374616E647320696E207468D7
:100230006520636F727265637420706F736974698F
:100240006F6E2C0A00456E746572206D3A20205343
:100250006572766F20706F736974696F6E202D20E0
:100260000A00456E74657220703A202053657276DC
:100270006F20706F736974696F6E202B20200A00E5
:10028000456E74657220683A202053746F70207434
:10029000686520736572766F206D6F76656D656E2B
:1002A000742028686F6C64290A00596F7520636197
:1002B0006E2075736520746865206E657874206B98
:1002C00065797320746F206368616E676520746858
:1002D0006520706F736974696F6E3A0A00286368ED
:1002E00061707465723A2063616C696272617469ED
:1002F0006F6E290A0A0074686520726F626F74203D
:1003000061726D20696E207468652073616D65206F
:10031000706F736974696F6E2061732074686520F3
:100320007069637475726520696E20746865206DEC
:10033000616E75616C0A00546F2063616C69627252
:100340006174652074686520726F626F74206172D9
:100350006D20696E2074686520726967687420700A
:100360006F736974696F6E2C20796F752068617680
:100370006520746F2063616C696272617465200A24
:1003800000232323232043616C6962726174696FC7
:100390006E2023232323230A000011241FBECFEF46
:1003A000D0E1DEBFCDBF11E0A0E0B1E001C01D9201
:1003B000A435B107E1F70E9458030C94170B0C9475
:1003C0000000DF93CF93CDB7DEB727970FB6F89431
:1003D000DEBF0FBECDBF0E94A7061F8281E090E066
:1003E0009E838D831C821B8281E893E00E943809E2
:1003F00087E393E00E94380986EF92E00E94380973
:100400008DED92E00E9438098AEA92E00E94380954
:1004100080E892E00E94380982E692E00E94380962
:1004200085E492E00E9438098DE092E00E9438094C
:100430008EED91E00E9438098AED91E00E94380922
:1004400082E00E94370A8CEB91E00E94380986E92D
:1004500091E00E9438098CED95E090930301809320
:100460000201D3C080914101882309F495C088E13D
:1004700091E00E94530A809118018F3609F05CC008
:10048000809119018B3609F057C04D815E818B81B7
:100490009C8184529A4F9C01CA01880F991FFC01CC
:1004A000E050FF4F318320838FE891E00E943809AC
:1004B0008D819E816AE00E9491098BE791E00E9404
:1004C00038098D819E81880F991FFC01E050FF4FF4
:1004D000808191816AE00E94910988E791E00E9401
:1004E00038098D819E8101969E838D838D819E81A9
:1004F000873091050CF04DC08D819E81880F991F2A
:10050000FC01E050FF4F8CED95E0918380831C82CD
:100510001B821F8282E691E00E9438098D819E81B4
:100520006AE00E9491098BE591E00E94380982E31C
:1005300091E00E9438092DC080911801883729F474
:100540008DE291E00E94380966C0809118018836DA
:1005500031F41F828FE191E00E9438091AC0809126
:100560001801803739F489E191E00E94380981E06F
:100570008F830FC0809118018D3639F482E191E0AC
:100580000E94380982E08F8304C08FEF90E00E94C0
:10059000380982E00E94370A8F81813031F48B81E3
:1005A0009C8101969C838B8308C08F81823029F4C3
:1005B0008B819C8101979C838B838D812B813C81D6
:1005C000B9010E94FA068FE090E00E9489048091B0
:1005D0002E0190912F0123E0893E9207B0F08F8188
:1005E000882399F084EF90E00E9438098B819C81E8
:1005F00084529A4F6AE00E94910982EF90E00E9433
:10060000380910922F0110922E018D819E81873022
:1006100091050CF427CF81E090E09A83898322C072
:1006200089ED90E00E94380989819A816AE00E94F0
:10063000910985ED90E00E94380989819A81880F9F
:10064000991FFC01E050FF4F808191816AE00E9478
:10065000910983ED90E00E94380989819A81019681
:100660009A83898329813A818D819E812817390750
:10067000BCF282EB90E00E9438090E94310689EAC0
:1006800090E00E9438090E94B5068CE890E00E9434
:10069000380928E131E081E0B9010E948A0A2796F1
:1006A0000FB6F894DEBF0FBECDBFCF91DF91089596
:1006B000DF93CF93CDB7DEB70E94640880912D0100
:1006C000816080932D010E94E101FDCF1F920F9266
:1006D0000FB60F9211248F939F93DF93CF9300D087
:1006E000CDB7DEB780913E0190913F010196909386
:1006F0003F0180933E01809140018A8319828A8163
:100700008A3010F081E089838A818F5F8093400175
:100710008981882309F486C080912D01882F90E07B
:1007200081709070882349F080912E0190912F0163
:10073000019690932F0180932E0180912D01882F97
:1007400090E082709070009749F080913001909114
:1007500031010196909331018093300180912D01F8
:10076000882F90E084709070009749F0809132015A
:1007700090913301019690933301809332018091DF
:100780002D01882F90E088709070009749F080913B
:100790003401909135010196909335018093340195
:1007A00080912D01882F90E080719070009749F022
:1007B0008091360190913701019690933701809393
:1007C000360180912D01882F90E080729070009703
:1007D00049F0809138019091390101969093390147
:1007E0008093380180912D01882F90E08074907063
:1007F000009749F080913A0190913B0101969093C6
:100800003B0180933A0180912D0188234CF4809123
:100810003C0190913D01019690933D0180933C01F4
:10082000109240010F900F90CF91DF919F918F9187
:100830000F900FBE0F901F901895DF93CF93CDB7F9
:10084000DEB7A5E6B0E0E5E6F0E0808181608C935C
:10085000A5E6B0E0E5E6F0E080818D7F8C93CF9156
:10086000DF910895DF93CF93CDB7DEB7A5E6B0E073
:10087000E5E6F0E080818E7F8C93A5E6B0E0E5E6CA
:10088000F0E0808182608C93CF91DF910895DF93B7
:10089000CF93CDB7DEB7A5E6B0E0E5E6F0E0808126
:1008A00081608C93A5E6B0E0E5E6F0E080818260AF
:1008B0008C93CF91DF910895DF93CF93CDB7DEB7BF
:1008C000A5E6B0E0E5E6F0E080818E7F8C93A5E6BA
:1008D000B0E0E5E6F0E080818D7F8C93CF91DF91F1
:1008E0000895DF93CF930F92CDB7DEB7898310922F
:1008F0003F0110923E018981282F30E080913E0116
:1009000090913F0182179307B0F30F90CF91DF9141
:100910000895DF93CF9300D00F92CDB7DEB79A83BF
:10092000898303C08AE00E9471041B8289819A81B5
:10093000009711F081E08B8389819A8101979A83D6
:1009400089838B81882371F70F900F900F90CF913F
:10095000DF910895DF93CF93CDB7DEB7E3E5F0E005
:100960008AE68083CF91DF910895DF93CF93CDB74F
:10097000DEB7E3E5F0E08AE48083CF91DF9108956C
:10098000DF93CF9300D0CDB7DEB79A838983E1E5BB
:10099000F0E0898180830F900F90CF91DF910895CF
:1009A000DF93CF93CDB7DEB728970FB6F894DEBFAD
:1009B0000FBECDBFEBE3F0E080E1808382E090E00A
:1009C0000E94890481E090E09C838B83E9E3F0E05E
:1009D0008081882F90E09A8389831E821D821EC0A9
:1009E00029813A818B819C81282339238B819C81A9
:1009F0002817390741F48D819E819C012F5F3F4F5D
:100A000038872F83BDC08B819C81880F991F9C8361
:100A10008B838D819E8101969E838D838D819E81A6
:100A200084309105ECF2EBE3F0E080E2808382E039
:100A300090E00E94890481E090E09C838B83E9E34D
:100A4000F0E08081882F90E09A8389831E821D8246
:100A50001EC029813A818B819C81282339238B8177
:100A60009C812817390741F48D819E819C012B5F61
:100A70003F4F38872F8384C08B819C81880F991FBB
:100A80009C838B838D819E8101969E838D838D8136
:100A90009E8184309105ECF2EBE3F0E080E480830A
:100AA00082E090E00E94890481E090E09C838B8347
:100AB000E9E3F0E08081882F90E09A8389831E82A9
:100AC0001D821EC029813A818B819C812823392374
:100AD0008B819C812817390741F48D819E819C016F
:100AE000275F3F4F38872F834BC08B819C81880FB6
:100AF000991F9C838B838D819E8101969E838D831C
:100B00008D819E8184309105ECF2EBE3F0E080E88A
:100B1000808382E090E00E94890481E090E09C83E1
:100B20008B83E9E3F0E08081882F90E09A838983CA
:100B30001E821D821EC029813A818B819C812823BF
:100B400039238B819C812817390741F48D819E813F
:100B50009C01235F3F4F38872F8312C08B819C817C
:100B6000880F991F9C838B838D819E8101969E8324
:100B70008D838D819E8184309105ECF218861F82D1
:100B80008F81988528960FB6F894DEBF0FBECDBF33
:100B9000CF91DF910895DF93CF93CDB7DEB728973C
:100BA0000FB6F894DEBF0FBECDBF98878F831E822D
:100BB0001D821C821B821A821982E4E2F0E01082FC
:100BC000E5E2F0E01082A7E2B0E0E7E2F0E0808149
:100BD000807E8C93A7E2B0E0E7E2F0E08081982F7E
:100BE0008F81892B8C938AE090E00E948904A6E291
:100BF000B0E0E6E2F0E0808180648C93E6E2F0E031
:100C00008081882F90E0807190700097B9F3A6E200
:100C1000B0E0E6E2F0E0808180618C93E4E2F0E015
:100C20008081882F90E09E838D83E5E2F0E08081D3
:100C3000882F90E09C838B838B819C81382F222787
:100C40008D819E81822B932B9A83898389819A81BE
:100C500028960FB6F894DEBF0FBECDBFCF91DF91BF
:100C60000895DF93CF93CDB7DEB780E091E020E029
:100C700030E0B9014EE050E00E94DC0ACF91DF91F4
:100C80000895DF93CF93CDB7DEB780E091E020E009
:100C900030E0B9014EE050E00E94CC0A80910201A0
:100CA000909103012FEF8F3F920731F48CED95E087
:100CB00090930301809302018091040190910501BA
:100CC0002FEF8F3F920731F48CED95E09093050163
:100CD0008093040180910601909107012FEF8F3FCF
:100CE000920731F48CED95E0909307018093060113
:100CF00080910801909109012FEF8F3F920731F405
:100D00008CED95E0909309018093080180910A0190
:100D100090910B012FEF8F3F920731F48CED95E00E
:100D200090930B0180930A0180910C0190910D0129
:100D30002FEF8F3F920731F48CED95E090930D01EA
:100D400080930C010E94C306CF91DF910895DF9339
:100D5000CF93CDB7DEB7A5E6B0E0E5E6F0E0808161
:100D6000877F8C93CF91DF910895DF93CF93CDB799
:100D7000DEB7A5E6B0E0E5E6F0E0808188608C9320
:100D8000CF91DF910895DF93CF93CDB7DEB7EAE43B
:100D9000F0E0809102019091030191838083E8E467
:100DA000F0E0809104019091050191838083E8E750
:100DB000F0E0809106019091070191838083E6E83D
:100DC000F0E0809108019091090191838083E4E82B
:100DD000F0E080910A0190910B0191838083E2E819
:100DE000F0E080910C0190910D0191838083CF916F
:100DF000DF910895DF93CF9300D000D00F92CDB74D
:100E0000DEB789837B836A838981282F30E03D8325
:100E10002C838C819D8183309105E1F12C813D8172
:100E2000243031055CF48C819D8181309105C1F0C5
:100E30002C813D812230310501F15FC08C819D8183
:100E40008530910509F440C02C813D812530310564
:100E500074F18C819D818630910509F442C04DC0AA
:100E6000EAE4F0E020910201309103018A819B8144
:100E7000820F931F9183808340C0E8E4F0E02091CB
:100E80000401309105018A819B81820F931F918318
:100E9000808333C0E8E7F0E020910601309107013C
:100EA0008A819B81820F931F9183808326C0E6E80D
:100EB000F0E020910801309109018A819B81820F25
:100EC000931F9183808319C0E4E8F0E020910A0128
:100ED00030910B018A819B81820F931F91838083C4
:100EE0000CC0E2E8F0E020910C0130910D018A8104
:100EF0009B81820F931F918380830F900F900F909F
:100F00000F900F90CF91DF910895DF93CF93CDB7DE
:100F1000DEB729970FB6F894DEBF0FBECDBF8B8327
:100F20007D836C835F834E838CE89AE09A83898308
:100F30008B81282F30E039872887488559854330B1
:100F4000510509F440C088859985843091055CF489
:100F50002885398521303105C1F0488559854230D1
:100F6000510511F16BC0888599858530910509F48B
:100F700048C02885398525303105A4F14885598533
:100F80004630510509F44CC059C0EAE4F0E0208134
:100F900031818091020190910301A901481B590BF5
:100FA000CA019A8389834AC0E8E4F0E02081318154
:100FB0008091040190910501A901481B590BCA01B8
:100FC0009A8389833BC0E8E7F0E0208131818091FA
:100FD000060190910701A901481B590BCA019A8388
:100FE00089832CC0E6E8F0E02081318180910801FE
:100FF00090910901A901481B590BCA019A83898361
:101000001DC0E4E8F0E02081318180910A019091D7
:101010000B01A901481B590BCA019A8389830EC091
:10102000E2E8F0E02081318180910C0190910D0186
:10103000A901481B590BCA019A83898329813A81E6
:101040008C819D8182179307C4F40FC089819A8196
:1010500001979A83898329813A818B81B9010E9402
:10106000FA068E819F810E94890429813A818C81B0
:101070009D818217930754F31EC029813A818C8188
:101080009D8128173907BCF40FC089819A81019688
:101090009A83898329813A818B81B9010E94FA065A
:1010A0008E819F810E94890429813A818C819D8152
:1010B0002817390754F329960FB6F894DEBF0FBEF0
:1010C000CDBFCF91DF910895DF93CF93CDB7DEB73A
:1010D000EBE3F0E01082E8E3F0E01082E5E3F0E01B
:1010E0001082E2E3F0E01082E3E2F0E01082E2E658
:1010F000F0E01082E5E6F0E088E08083EAE3F0E0EB
:1011000080EF8083E7E3F0E08FEF8083E4E3F0E0BB
:101110008CEF8083E1E3F0E08BE08083E2E2F0E0BB
:101120008AEF8083E1E6F0E01082E4E6F0E08FE110
:101130008083F894E7E2F0E080EC8083E6E2F0E080
:1011400083EE8083EEE8F0E01082E3E5F0E08AE4ED
:101150008083E1E5F0E08FEF8083E5E4F0E08AE072
:101160008083E3E4F0E08CEC8083EFE4F0E088EA55
:101170008083EEE4F0E082E18083E6E4F0E080E06A
:1011800090E591838083EDE4F0E01082ECE4F0E000
:101190001082EBE8F0E088EA8083EAE8F0E082E1A0
:1011A0008083E0E8F0E080E090E591838083E9E8E7
:1011B000F0E01082E8E8F0E010820E944106E8E9E1
:1011C000F0E01082E9E9F0E089E18083EBE9F0E00A
:1011D0001082EDE9F0E086E08083EAE9F0E088E95A
:1011E0008083A7E5B0E0E7E5F0E0808180688C933C
:1011F00078940E941D0488EE93E00E9489040E9466
:101200003204CF91DF910895DF93CF930F92CDB742
:10121000DEB78983EBE9F0E08081882F90E080726F
:1012200090700097B9F3ECE9F0E0898180830F902A
:10123000CF91DF910895DF93CF9300D0CDB7DEB784
:101240009A8389830BC0E981FA81208189819A81FF
:1012500001969A838983822F0E940409E981FA8189
:101260008081882381F70F900F90CF91DF910895AF
:10127000DF93CF9300D000D000D0CDB7DEB79E83F0
:101280008D8303C08C810E9404098D819E819B8384
:101290008A838D819E8101969E838D83EA81FB8165
:1012A0008491898389818C838C81882359F7269640
:1012B0000FB6F894DEBF0FBECDBFCF91DF9108957A
:1012C000DF93CF9300D000D0CDB7DEB79A83898368
:1012D0006B834C838C81282F30E089819A81820F27
:1012E000931F9A8389830EC0E981FA8120818981C5
:1012F0009A8101969A838983822F0E9404098B81A7
:1013000081508B83E981FA818081882319F08B8158
:10131000882351F70F900F900F900F90CF91DF918E
:101320000895DF93CF93CDB7DEB764970FB6F894E7
:10133000DEBF0FBECDBF9B8B8A8B6C8B8C89482FF9
:1013400050E08A899B899E012F5F3F4FB9010E941F
:10135000AB0ACE0101960E941B0964960FB6F89461
:10136000DEBF0FBECDBFCF91DF910895DF93CF9346
:10137000CDB7DEB766970FB6F894DEBF0FBECDBF10
:101380009C8B8B8B6D8B4E8B8D89482F50E08B897E
:101390009C899E012E5F3F4FB9010E94AB0ACE018E
:1013A00002960E94A20A982F8E89891B89838981BF
:1013B00018167CF406C089818150898380E30E94DD
:1013C000040989811816BCF3CE0102960E941B09FC
:1013D00009C089818195282FCE0102966E89422FFE
:1013E0000E94600966960FB6F894DEBF0FBECDBFAF
:1013F000CF91DF9108951F920F920FB60F92112493
:101400002F933F938F939F93EF93FF93DF93CF930C
:101410000F92CDB7DEB7ECE9F0E08081898380914F
:1014200041018823B1F430914301832F90E0298159
:10143000FC01EC5BFE4F2083832F8F5F8093430181
:101440009091430180914201981718F082E08093B7
:1014500041010F90CF91DF91FF91EF919F918F917B
:101460003F912F910F900FBE0F901F901895DF9313
:10147000CF930F92CDB7DEB7898310924301898154
:1014800080934201109241010F90CF91DF91089516
:10149000DF93CF93CDB7DEB7809141018823E1F38D
:1014A000CF91DF910895DF93CF9300D00F92CDB706
:1014B000DEB79B838A83198213C08981282F30E08D
:1014C0008A819B81DC01A20FB31F8981882F90E064
:1014D000FC01EC5BFE4F80818C9389818F5F898357
:1014E000909142018981891740F381E08093410105
:1014F0000F900F900F90CF91DF910895DF93CF93CE
:10150000CDB7DEB71092420181E080934101CF91C7
:10151000DF910895DF93CF9300D00F92CDB7DEB760
:1015200089837B836A8389810E94370A0E94480AE3
:101530008A819B810E94530A0F900F900F90CF9148
:10154000DF910895FC0101900020E9F780959095C6
:101550008E0F9F1F0895FB019F01E8944230C4F055
:101560004532B4F44A3029F497FB1EF490958195E6
:101570009F4F642F77270E94030B805D8A330CF006
:10158000895D8193CB010097A1F716F45DE2519339
:101590001082C9010C94F30ADC01CB01FC01E19932
:1015A000FECF06C0FFBBEEBBE09A31960DB20D92A6
:1015B00041505040B8F70895DC01CB0103C02D9194
:1015C0000E94E70A41505040D0F70895262FE19934
:1015D000FECF9FBB8EBB2DBB0FB6F894E29AE19A6B
:1015E0000FBE01960895DC01FC01672F71917723EE
:1015F000E1F7329704C07C916D9370836291AE17CE
:10160000BF07C8F30895AA1BBB1B51E107C0AA1F5F
:10161000BB1FA617B70710F0A61BB70B881F991F93
:101620005A95A9F780959095BC01CD010895F8943D
:02163000FFCFEA
:00000001FF
