:100000000C94EE000C940B010C940B010C940B015E
:100010000C940B010C940B010C940B010C940B0130
:100020000C940B010C947F020C940B010C940B01AB
:100030000C940B010C940B010C940B010C940B0110
:100040000C940B010C940B010C940B010C940B0100
:100050000C940B010C940B010C940B010C940B01F0
:100060000C940B010C940B010C940B010C940B01E0
:100070000C940B010C940B010C9414090C940B01BF
:100080000C940B010C940B010C940B010A0A507296
:100090006573732027782720746F207265737461ED
:1000A00072742070726F6772616D0A000A204D6170
:1000B000782063757272656E74203D200052656110
:1000C000642063757272656E74203D200020435574
:1000D0005252454E5420544F4F2048494748210A18
:1000E000000A0A5741524E494E473A20534552564C
:1000F0004F002323232323232020524553544152CE
:1001000054204D6561737572652043757272656E1A
:10011000747320202323232323230A0A0023232369
:10012000232323232323232323232323232323239F
:10013000232323232323232323232323232323238F
:1001400023232323230A0020207C43757220363A80
:10015000200020207C43757220353A200020207C2E
:1001600043757220343A200020207C43757220337E
:100170003A200020207C43757220323A20004375DB
:100180007220313A200023232323232323232020FA
:10019000204D6561737572652043757272656E746A
:1001A00073202023232323232323232323230A0A07
:1001B0000023232323232323232323232323232332
:1001C00023232323232323232323232323232323FF
:1001D0002323232323232323230A000011241FBEC8
:1001E000CFEFD0E1DEBFCDBF11E0A0E0B1E0E4E6AB
:1001F000F4E102C005900D92A230B107D9F711E0E9
:10020000A2E0B1E001C01D92A635B107E1F70E945E
:100210004F010C94300A0C940000DF93CF9300D070
:1002200000D000D0CDB7DEB79A8389837C836B83FF
:100230005E834D8381EE90E00E94510889819A810E
:100240006AE041E00E94CF088DEC90E00E945108E6
:100250008DEB90E00E9451088B819C816AE043E025
:100260000E94CF088CEA90E00E9451088D819E8107
:100270006AE043E00E94CF088CE890E00E945108B9
:100280000E94CE05109201011092000126960FB631
:10029000F894DEBF0FBECDBFCF91DF910895DF93FD
:1002A000CF93CDB7DEB70E947D070E94DC050E9488
:1002B000C00581EB91E00E94510886E891E00E9420
:1002C000510888EE93E00E94A20380910001909172
:1002D00001010097D1F380E090E00E94E404909344
:1002E0001301809312018EE791E00E9451088091E2
:1002F0001201909113016AE043E00E94CF0881E06F
:1003000090E00E94E404909315018093140183E728
:1003100091E00E94510880911401909115016AE0CA
:1003200043E00E94CF0882E090E00E94E4049093B2
:1003300019018093180188E691E00E94510880918C
:100340001801909119016AE043E00E94CF0883E010
:1003500090E00E94E40490931101809310018DE5D8
:1003600091E00E94510880911001909111016AE082
:1003700043E00E94CF0884E090E00E94E404909360
:100380002B0180932A0182E591E00E94510880911F
:100390002A0190912B016AE043E00E94CF0885E09A
:1003A00090E00E94E404909317018093160187E483
:1003B00091E00E94510880911601909117016AE026
:1003C00043E00E94CF088AE00E941D0884EF91E07C
:1003D0000E94A20380911201909113018D33910527
:1003E0005CF0209112013091130181E090E0B9019D
:1003F0004CE350E00E940D01809114019091150191
:100400008D3391055CF0209114013091150182E04B
:1004100090E0B9014CE350E00E940D018091180179
:10042000909119018D3391055CF020911801309164
:10043000190183E090E0B9014CE350E00E940D0106
:100440008091100190911101813591055CF020910E
:1004500010013091110184E090E0B90140E550E0D5
:100460000E940D0180912A0190912B0187399105FD
:100470005CF020912A0130912B0185E090E0B901D8
:1004800046E950E00E940D018091160190911701FC
:10049000873991055CF0209116013091170186E0B3
:1004A00090E0B90146E950E00E940D018091000101
:1004B00090910101009709F008CF2AE131E081E035
:1004C000B9010E94A30980911A01883709F0FDCE75
:1004D0008DE191E00E94510882EF90E00E94510866
:1004E0000E94DC050E94C00584EF91E00E94A203F7
:1004F00081E090E09093010180930001E6CE1F928D
:100500000F920FB60F9211248F939F93DF93CF9387
:1005100000D0CDB7DEB780914001909141010196A6
:100520009093410180934001809142018A83198216
:100530008A818A3010F081E089838A818F5F80937D
:1005400042018981882309F486C080912F01882F78
:1005500090E081709070882349F0809130019091F3
:1005600031010196909331018093300180912F01E8
:10057000882F90E082709070009749F0809132014E
:1005800090913301019690933301809332018091D1
:100590002F01882F90E084709070009749F080912F
:1005A0003401909135010196909335018093340187
:1005B00080912F01882F90E088709070009749F00B
:1005C0008091360190913701019690933701809385
:1005D000360180912F01882F90E0807190700097F4
:1005E00049F0809138019091390101969093390139
:1005F0008093380180912F01882F90E08072907055
:10060000009749F080913A0190913B0101969093B7
:100610003B0180933A0180912F01882F90E08074F4
:100620009070009749F080913C0190913D010196B6
:1006300090933D0180933C0180912F0188234CF4DD
:1006400080913E0190913F01019690933F018093EC
:100650003E01109242010F900F90CF91DF919F9138
:100660008F910F900FBE0F901F901895DF93CF932F
:10067000CDB7DEB7A5E6B0E0E5E6F0E080818160C9
:100680008C93A5E6B0E0E5E6F0E080818D7F8C9369
:10069000CF91DF910895DF93CF93CDB7DEB7A5E675
:1006A000B0E0E5E6F0E080818E7F8C93A5E6B0E0D7
:1006B000E5E6F0E0808182608C93CF91DF91089530
:1006C000DF93CF93CDB7DEB7A5E6B0E0E5E6F0E087
:1006D000808181608C93A5E6B0E0E5E6F0E0808162
:1006E00082608C93CF91DF910895DF93CF93CDB744
:1006F000DEB7A5E6B0E0E5E6F0E080818E7F8C9382
:10070000A5E6B0E0E5E6F0E080818D7F8C93CF91A7
:10071000DF910895DF93CF930F92CDB7DEB7898332
:1007200010924101109240018981282F30E0809180
:1007300040019091410182179307B0F30F90CF9140
:10074000DF910895DF93CF9300D00F92CDB7DEB73E
:100750009A83898303C08AE00E948A031B8289816D
:100760009A81009711F081E08B8389819A810197AA
:100770009A8389838B81882371F70F900F900F9054
:10078000CF91DF910895DF93CF93CDB7DEB7E3E547
:10079000F0E08AE68083CF91DF910895DF93CF93D5
:1007A000CDB7DEB7E3E5F0E08AE48083CF91DF9157
:1007B0000895DF93CF9300D0CDB7DEB79A838983B6
:1007C000E1E5F0E0898180830F900F90CF91DF9178
:1007D0000895DF93CF93CDB7DEB728970FB6F8947F
:1007E000DEBF0FBECDBFEBE3F0E080E1808382E0AF
:1007F00090E00E94A20381E090E09C838B83E9E378
:10080000F0E08081882F90E09A8389831E821D8288
:100810001EC029813A818B819C81282339238B81B9
:100820009C812817390741F48D819E819C012F5F9F
:100830003F4F38872F83BDC08B819C81880F991FC4
:100840009C838B838D819E8101969E838D838D8178
:100850009E8184309105ECF2EBE3F0E080E280834E
:1008600082E090E00E94A20381E090E09C838B8371
:10087000E9E3F0E08081882F90E09A8389831E82EB
:100880001D821EC029813A818B819C8128233923B6
:100890008B819C812817390741F48D819E819C01B1
:1008A0002B5F3F4F38872F8384C08B819C81880FBB
:1008B000991F9C838B838D819E8101969E838D835E
:1008C0008D819E8184309105ECF2EBE3F0E080E4D1
:1008D000808382E090E00E94A20381E090E09C830C
:1008E0008B83E9E3F0E08081882F90E09A8389830D
:1008F0001E821D821EC029813A818B819C81282302
:1009000039238B819C812817390741F48D819E8181
:100910009C01275F3F4F38872F834BC08B819C8181
:10092000880F991F9C838B838D819E8101969E8366
:100930008D838D819E8184309105ECF2EBE3F0E0B4
:1009400080E8808382E090E00E94A20381E090E052
:100950009C838B83E9E3F0E08081882F90E09A8389
:1009600089831E821D821EC029813A818B819C81D0
:10097000282339238B819C812817390741F48D81E5
:100980009E819C01235F3F4F38872F8312C08B814C
:100990009C81880F991F9C838B838D819E810196FA
:1009A0009E838D838D819E8184309105ECF2188623
:1009B0001F828F81988528960FB6F894DEBF0FBEF0
:1009C000CDBFCF91DF910895DF93CF93CDB7DEB741
:1009D00028970FB6F894DEBF0FBECDBF98878F83E0
:1009E0001E821D821C821B821A821982E4E2F0E0C0
:1009F0001082E5E2F0E01082A7E2B0E0E7E2F0E08A
:100A00008081807E8C93A7E2B0E0E7E2F0E0808115
:100A1000982F8F81892B8C938AE090E00E94A2030B
:100A2000A6E2B0E0E6E2F0E0808180648C93E6E24A
:100A3000F0E08081882F90E0807190700097B9F38A
:100A4000A6E2B0E0E6E2F0E0808180618C93E4E22F
:100A5000F0E08081882F90E09E838D83E5E2F0E0D6
:100A60008081882F90E09C838B838B819C81382FA1
:100A700022278D819E81822B932B9A838983898162
:100A80009A8128960FB6F894DEBF0FBECDBFCF91E6
:100A9000DF910895DF93CF93CDB7DEB782E091E089
:100AA00020E030E0B9014EE050E00E94F509CF911E
:100AB000DF910895DF93CF93CDB7DEB782E091E069
:100AC00020E030E0B9014EE050E00E94E50980915D
:100AD0000401909105012FEF8F3F920731F48CEDC7
:100AE00095E0909305018093040180910601909117
:100AF00007012FEF8F3F920731F48CED95E0909333
:100B000007018093060180910801909109012FEF60
:100B10008F3F920731F48CED95E09093090180931B
:100B2000080180910A0190910B012FEF8F3F9207EE
:100B300031F48CED95E090930B0180930A01809144
:100B40000C0190910D012FEF8F3F920731F48CED46
:100B500095E090930D0180930C0180910E0190918E
:100B60000F012FEF8F3F920731F48CED95E09093BA
:100B70000F0180930E010E94DC05CF91DF91089553
:100B8000DF93CF93CDB7DEB7A5E6B0E0E5E6F0E0C2
:100B90008081877F8C93CF91DF910895DF93CF93EE
:100BA000CDB7DEB7A5E6B0E0E5E6F0E0808188608D
:100BB0008C93CF91DF910895DF93CF93CDB7DEB7BC
:100BC000EAE4F0E080910401909105019183808333
:100BD000E8E4F0E080910601909107019183808321
:100BE000E8E7F0E08091080190910901918380830A
:100BF000E6E8F0E080910A0190910B0191838083F7
:100C0000E4E8F0E080910C0190910D0191838083E4
:100C1000E2E8F0E080910E0190910F0191838083D2
:100C2000CF91DF910895DF93CF9300D000D00F9242
:100C3000CDB7DEB789837B836A838981282F30E033
:100C40003D832C838C819D8183309105E1F12C8142
:100C50003D81243031055CF48C819D81813091058A
:100C6000C1F02C813D812230310501F15FC08C81C2
:100C70009D818530910509F440C02C813D8125304E
:100C8000310574F18C819D818630910509F442C053
:100C90004DC0EAE4F0E020910401309105018A8121
:100CA0009B81820F931F9183808340C0E8E4F0E032
:100CB00020910601309107018A819B81820F931F49
:100CC0009183808333C0E8E7F0E020910801309100
:100CD00009018A819B81820F931F9183808326C0A3
:100CE000E6E8F0E020910A0130910B018A819B81B6
:100CF000820F931F9183808319C0E4E8F0E0209174
:100D00000C0130910D018A819B81820F931F918389
:100D100080830CC0E2E8F0E020910E0130910F01D9
:100D20008A819B81820F931F918380830F900F9004
:100D30000F900F900F90CF91DF910895DF93CF9395
:100D4000CDB7DEB729970FB6F894DEBF0FBECDBF83
:100D50008B837D836C835F834E838CE89AE09A83D8
:100D600089838B81282F30E03987288748855985EA
:100D70004330510509F440C0888599858430910538
:100D80005CF42885398521303105C1F048855985C5
:100D90004230510511F16BC08885998585309105E8
:100DA00009F448C02885398525303105A4F14885E6
:100DB00059854630510509F44CC059C0EAE4F0E0C9
:100DC000208131818091040190910501A901481B86
:100DD000590BCA019A8389834AC0E8E4F0E0208174
:100DE00031818091060190910701A901481B590B9F
:100DF000CA019A8389833BC0E8E7F0E02081318112
:100E00008091080190910901A901481B590BCA0161
:100E10009A8389832CC0E6E8F0E0208131818091BB
:100E20000A0190910B01A901481B590BCA019A8331
:100E300089831DC0E4E8F0E02081318180910C01BC
:100E400090910D01A901481B590BCA019A8389830E
:100E50000EC0E2E8F0E02081318180910E01909196
:100E60000F01A901481B590BCA019A838983298163
:100E70003A818C819D8182179307C4F40FC08981C8
:100E80009A8101979A83898329813A818B81B9015B
:100E90000E9413068E819F810E94A20329813A81BC
:100EA0008C819D818217930754F31EC029813A815A
:100EB0008C819D8128173907BCF40FC089819A81E4
:100EC00001969A83898329813A818B81B9010E9495
:100ED00013068E819F810E94A20329813A818C8111
:100EE0009D812817390754F329960FB6F894DEBF71
:100EF0000FBECDBFCF91DF910895DF93CF93CDB7D4
:100F0000DEB7EBE3F0E01082E8E3F0E01082E5E327
:100F1000F0E01082E2E3F0E01082E3E2F0E0108221
:100F2000E2E6F0E01082E5E6F0E088E08083EAE3C4
:100F3000F0E080EF8083E7E3F0E08FEF8083E4E38D
:100F4000F0E08CEF8083E1E3F0E08BE08083E2E28D
:100F5000F0E08AEF8083E1E6F0E01082E4E6F0E082
:100F60008FE18083F894E7E2F0E080EC8083E6E2B2
:100F7000F0E083EE8083EEE8F0E01082E3E5F0E05D
:100F80008AE48083E1E5F0E08FEF8083E5E4F0E040
:100F90008AE08083E3E4F0E08CEC8083EFE4F0E02F
:100FA00088EA8083EEE4F0E082E18083E6E4F0E02A
:100FB00080E090E591838083EDE4F0E01082ECE442
:100FC000F0E01082EBE8F0E088EA8083EAE8F0E005
:100FD00082E18083E0E8F0E080E090E59183808327
:100FE000E9E8F0E01082E8E8F0E010820E945A059B
:100FF000E8E9F0E01082E9E9F0E089E18083EBE9DB
:10100000F0E01082EDE9F0E086E08083EAE9F0E0CC
:1010100088E98083A7E5B0E0E7E5F0E080818068BB
:101020008C9378940E94360388EE93E00E94A2038A
:101030000E944B03CF91DF910895DF93CF930F92DE
:10104000CDB7DEB78983EBE9F0E08081882F90E0AF
:10105000807290700097B9F3ECE9F0E089818083A9
:101060000F90CF91DF910895DF93CF9300D0CDB74C
:10107000DEB79A8389830BC0E981FA812081898157
:101080009A8101969A838983822F0E941D08E981A3
:10109000FA818081882381F70F900F90CF91DF91A3
:1010A0000895DF93CF9300D000D000D0CDB7DEB746
:1010B0009E838D8303C08C810E941D088D819E813B
:1010C0009B838A838D819E8101969E838D83EA8195
:1010D000FB818491898389818C838C81882359F752
:1010E00026960FB6F894DEBF0FBECDBFCF91DF912D
:1010F0000895DF93CF9300D000D0CDB7DEB79A83A9
:1011000089836B834C838C81282F30E089819A817D
:10111000820F931F9A8389830EC0E981FA8120810F
:1011200089819A8101969A838983822F0E941D0862
:101130008B8181508B83E981FA818081882319F02A
:101140008B81882351F70F900F900F900F90CF91C4
:10115000DF910895DF93CF93CDB7DEB764970FB6D5
:10116000F894DEBF0FBECDBF9B8B8A8B6C8B8C89B6
:10117000482F50E08A899B899E012F5F3F4FB9011C
:101180000E94C409CE0101960E94340864960FB6ED
:10119000F894DEBF0FBECDBFCF91DF910895DF93EE
:1011A000CF93CDB7DEB766970FB6F894DEBF0FBE0C
:1011B000CDBF9C8B8B8B6D8B4E8B8D89482F50E0D8
:1011C0008B899C899E012E5F3F4FB9010E94C40903
:1011D000CE0102960E94BB09982F8E89891B8983B4
:1011E000898118167CF406C089818150898380E347
:1011F0000E941D0889811816BCF3CE0102960E9438
:10120000340809C089818195282FCE0102966E8904
:10121000422F0E94790866960FB6F894DEBF0FBE83
:10122000CDBFCF91DF9108951F920F920FB60F920D
:1012300011242F933F938F939F93EF93FF93DF930B
:10124000CF930F92CDB7DEB7ECE9F0E080818983D0
:10125000809143018823B1F430914501832F90E0C0
:101260002981FC01EA5BFE4F2083832F8F5F8093EF
:1012700045019091450180914401981718F082E052
:10128000809343010F90CF91DF91FF91EF919F9158
:101290008F913F912F910F900FBE0F901F90189537
:1012A000DF93CF930F92CDB7DEB7898310924501BC
:1012B000898180934401109243010F90CF91DF9177
:1012C0000895DF93CF93CDB7DEB780914301882394
:1012D000E1F3CF91DF910895DF93CF9300D00F9288
:1012E000CDB7DEB79B838A83198213C08981282FEB
:1012F00030E08A819B81DC01A20FB31F8981882F96
:1013000090E0FC01EA5BFE4F80818C9389818F5FC6
:101310008983909144018981891740F381E080930A
:1013200043010F900F900F90CF91DF910895DF93BD
:10133000CF93CDB7DEB71092440181E08093430193
:10134000CF91DF910895DF93CF9300D00F92CDB767
:10135000DEB789837B836A8389810E9450090E945A
:1013600061098A819B810E946C090F900F900F90F8
:10137000CF91DF910895FC0101900020E9F780955D
:1013800090958E0F9F1F0895FB019F01E8944230B6
:10139000C4F04532B4F44A3029F497FB1EF490951A
:1013A00081959F4F642F77270E941C0A805D8A33A6
:1013B0000CF0895D8193CB010097A1F716F45DE2F3
:1013C00051931082C9010C940C0ADC01CB01FC0181
:1013D000E199FECF06C0FFBBEEBBE09A31960DB29D
:1013E0000D9241505040B8F70895DC01CB0103C085
:1013F0002D910E94000A41505040D0F70895262FA9
:10140000E199FECF9FBB8EBB2DBB0FB6F894E29A3D
:10141000E19A0FBE01960895DC01FC01672F7191DE
:101420007723E1F7329704C07C916D9370836291CA
:10143000AE17BF07C8F30895AA1BBB1B51E107C035
:10144000AA1FBB1FA617B70710F0A61BB70B881F54
:10145000991F5A95A9F780959095BC01CD010895E3
:04146000F894FFCF2E
:02146400010085
:00000001FF
