:100000000C946F000C9481000C9481000C9481007E
:100010000C9481000C9481000C9481000C9481005C
:100020000C9481000C94E3010C9481000C948100E9
:100030000C9481000C9481000C9481000C9481003C
:100040000C9481000C9481000C9481000C9481002C
:100050000C9481000C9481000C9481000C9481001C
:100060000C9481000C9481000C9481000C9481000C
:100070000C9481000C9481000C9478080C948100FD
:100080000C9481000C9481000C9481000A2054414E
:100090004E4B204C454654000A2054414E4B2052B2
:1000A00049474854000A2054414E4B2042434B00DC
:1000B0000A2054414E4B20464E54000A204E6F7485
:1000C00068696E6720000A204B657920426F617273
:1000D0006420436F6E74726F6C200A0A0000112452
:1000E0001FBECFEFD0E1DEBFCDBF11E0A0E0B1E099
:1000F00001C01D92A634B107E1F70E94C8010C941B
:1001000094090C940000DF93CF9300D000D0CDB7BA
:10011000DEB79A83898389819A819C838B838B81C3
:100120009C818830910509F4D3C08B819C818930F2
:100130009105B4F58B819C818330910509F482C0CF
:100140008B819C818430910594F48B819C818130DA
:10015000910509F45BC08B819C81823091050CF084
:1001600063C08B819C81009709F44BC00AC18B81CD
:100170009C818530910509F481C08B819C818530FB
:1001800091050CF46DC08B819C818630910509F43A
:1001900083C08B819C818730910509F48BC0F1C0AD
:1001A0008B819C818C30910509F4CAC08B819C8124
:1001B0008D3091056CF48B819C818A30910509F416
:1001C000A3C08B819C818B3091050CF0ABC08EC09D
:1001D0008B819C818E30910509F4C5C08B819C81F7
:1001E0008E3091050CF4BAC08B819C818F309105C3
:1001F00009F4BEC08B819C818031910509F4BDC09A
:10020000C0C08BEB90E00E94B507BBC0EAE4F0E011
:1002100080819181019791838083809118019091D1
:1002200019010E940603ADC0EAE4F0E080819181EB
:1002300001969183808380911801909119010E9409
:1002400006039FC0E8E4F0E08081918101979183EB
:10025000808380911801909119010E94060391C03A
:10026000E8E4F0E080819181019691838083809120
:100270001801909119010E94060383C0E8E7F0E09D
:100280008081918101979183808380911801909161
:1002900019010E94060375C0E8E7F0E080819181B2
:1002A00001969183808380911801909119010E9499
:1002B000060367C0E6E8F0E08081918101979183B1
:1002C000808380911801909119010E94060359C002
:1002D000E6E8F0E0808191810196918380838091AE
:1002E0001801909119010E9406034BC0E4E8F0E068
:1002F00080819181019791838083809118019091F1
:1003000019010E9406033DC0E4E8F0E0808191817C
:1003100001969183808380911801909119010E9428
:1003200006032FC0E2E8F0E080819181019791837C
:10033000808380911801909119010E94060321C0C9
:10034000E2E8F0E080819181019691838083809141
:100350001801909119010E94060313C080EB90E0F0
:100360000E94B5070EC085EA90E00E94B50709C05B
:1003700088E990E00E94B50704C08CE890E00E94F4
:10038000B5070F900F900F900F90CF91DF910895C8
:10039000DF93CF93CDB7DEB70E94E10688EE93E0FE
:1003A0000E940603109219011092180186EC90E049
:1003B0000E94B5070E9440050E9424050E944D033B
:1003C0000E948300FBCF1F920F920FB60F92112451
:1003D0008F939F93DF93CF9300D0CDB7DEB78091FB
:1003E0003001909131010196909331018093300159
:1003F000809132018A8319828A818A3010F081E0EB
:1004000089838A818F5F809332018981882309F4EF
:1004100086C080911F01882F90E0817090708823A2
:1004200049F0809120019091210101969093210142
:100430008093200180911F01882F90E0827090703E
:10044000009749F0809122019091230101969093A9
:1004500023018093220180911F01882F90E08470F6
:100460009070009749F080912401909125010196A8
:10047000909325018093240180911F01882F90E0A3
:1004800088709070009749F0809126019091270123
:100490000196909327018093260180911F01882F58
:1004A00090E080719070009749F0809128019091C0
:1004B00029010196909329018093280180911F01C1
:1004C000882F90E080729070009749F080912A0107
:1004D00090912B01019690932B0180932A0180919A
:1004E0001F01882F90E080749070009749F08091F0
:1004F0002C0190912D01019690932D0180932C0158
:1005000080911F0188234CF480912E0190912F013E
:10051000019690932F0180932E01109232010F903B
:100520000F90CF91DF919F918F910F900FBE0F9001
:100530001F901895DF93CF93CDB7DEB7A5E6B0E057
:10054000E5E6F0E0808181608C93A5E6B0E0E5E629
:10055000F0E080818D7F8C93CF91DF910895DF93C0
:10056000CF93CDB7DEB7A5E6B0E0E5E6F0E0808159
:100570008E7F8C93A5E6B0E0E5E6F0E080818260B6
:100580008C93CF91DF910895DF93CF93CDB7DEB7F2
:10059000A5E6B0E0E5E6F0E0808181608C93A5E619
:1005A000B0E0E5E6F0E0808182608C93CF91DF914E
:1005B0000895DF93CF93CDB7DEB7A5E6B0E0E5E6CB
:1005C000F0E080818E7F8C93A5E6B0E0E5E6F0E078
:1005D00080818D7F8C93CF91DF910895DF93CF93AE
:1005E0000F92CDB7DEB7898310923101109230019E
:1005F0008981282F30E0809130019091310182175C
:100600009307B0F30F90CF91DF910895DF93CF93CD
:1006100000D00F92CDB7DEB79A83898303C08AE0FA
:100620000E94EE021B8289819A81009711F081E07D
:100630008B8389819A8101979A8389838B8188230F
:1006400071F70F900F900F90CF91DF910895DF9386
:10065000CF93CDB7DEB7E3E5F0E08AE68083CF91B4
:10066000DF910895DF93CF93CDB7DEB7E3E5F0E0F8
:100670008AE48083CF91DF910895DF93CF9300D0F8
:10068000CDB7DEB79A838983E1E5F0E08981808385
:100690000F900F90CF91DF910895DF93CF93CDB757
:1006A000DEB728970FB6F894DEBF0FBECDBFEBE3E1
:1006B000F0E080E1808382E090E00E94060381E028
:1006C00090E09C838B83E9E3F0E08081882F90E0C9
:1006D0009A8389831E821D821EC029813A818B8163
:1006E0009C81282339238B819C812817390741F469
:1006F0008D819E819C012F5F3F4F38872F83BDC026
:100700008B819C81880F991F9C838B838D819E8117
:1007100001969E838D838D819E8184309105ECF2BC
:10072000EBE3F0E080E2808382E090E00E94060349
:1007300081E090E09C838B83E9E3F0E08081882F67
:1007400090E09A8389831E821D821EC029813A818E
:100750008B819C81282339238B819C812817390721
:1007600041F48D819E819C012B5F3F4F38872F8301
:1007700084C08B819C81880F991F9C838B838D8182
:100780009E8101969E838D838D819E81843091050B
:10079000ECF2EBE3F0E080E4808382E090E00E9402
:1007A000060381E090E09C838B83E9E3F0E08081A5
:1007B000882F90E09A8389831E821D821EC0298122
:1007C0003A818B819C81282339238B819C81281736
:1007D000390741F48D819E819C01275F3F4F388707
:1007E0002F834BC08B819C81880F991F9C838B83A7
:1007F0008D819E8101969E838D838D819E81843023
:100800009105ECF2EBE3F0E080E8808382E090E099
:100810000E94060381E090E09C838B83E9E3F0E093
:100820008081882F90E09A8389831E821D821EC05A
:1008300029813A818B819C81282339238B819C815A
:100840002817390741F48D819E819C01235F3F4F1A
:1008500038872F8312C08B819C81880F991F9C83BE
:100860008B838D819E8101969E838D838D819E8158
:1008700084309105ECF218861F828F819885289626
:100880000FB6F894DEBF0FBECDBFCF91DF910895B4
:10089000DF93CF93CDB7DEB728970FB6F894DEBFBE
:1008A0000FBECDBF98878F831E821D821C821B8244
:1008B0001A821982E4E2F0E01082E5E2F0E01082B0
:1008C000A7E2B0E0E7E2F0E08081807E8C93A7E2CF
:1008D000B0E0E7E2F0E08081982F8F81892B8C9344
:1008E0008AE090E00E940603A6E2B0E0E6E2F0E0D3
:1008F000808180648C93E6E2F0E08081882F90E034
:10090000807190700097B9F3A6E2B0E0E6E2F0E003
:10091000808180618C93E4E2F0E08081882F90E018
:100920009E838D83E5E2F0E08081882F90E09C83B8
:100930008B838B819C81382F22278D819E81822BF6
:10094000932B9A83898389819A8128960FB6F8948C
:10095000DEBF0FBECDBFCF91DF910895DF93CF9360
:10096000CDB7DEB780E091E020E030E0B9014EE0A5
:1009700050E00E945909CF91DF910895DF93CF9302
:10098000CDB7DEB780E091E020E030E0B9014EE085
:1009900050E00E94490980910201909103012FEFDC
:1009A0008F3F920731F48CED95E090930301809393
:1009B000020180910401909105012FEF8F3F920772
:1009C00031F48CED95E090930501809304018091C2
:1009D0000601909107012FEF8F3F920731F48CEDC4
:1009E00095E0909307018093060180910801909112
:1009F00009012FEF8F3F920731F48CED95E0909332
:100A000009018093080180910A0190910B012FEF59
:100A10008F3F920731F48CED95E090930B0180931A
:100A20000A0180910C0190910D012FEF8F3F9207E9
:100A300031F48CED95E090930D0180930C010E94B0
:100A40004005CF91DF910895DF93CF93CDB7DEB707
:100A5000A5E6B0E0E5E6F0E08081877F8C93CF915A
:100A6000DF910895DF93CF93CDB7DEB7A5E6B0E071
:100A7000E5E6F0E0808188608C93CF91DF91089566
:100A8000DF93CF93CDB7DEB7EAE4F0E080910201C7
:100A90009091030191838083E8E4F0E08091040168
:100AA0009091050191838083E8E7F0E08091060151
:100AB0009091070191838083E6E8F0E0809108013E
:100AC0009091090191838083E4E8F0E080910A012C
:100AD00090910B0191838083E2E8F0E080910C011A
:100AE00090910D0191838083CF91DF910895DF93E1
:100AF000CF9300D000D00F92CDB7DEB789837B8330
:100B00006A838981282F30E03D832C838C819D81ED
:100B100083309105E1F12C813D81243031055CF475
:100B20008C819D8181309105C1F02C813D812230E5
:100B3000310501F15FC08C819D818530910509F4FB
:100B400040C02C813D812530310574F18C819D811F
:100B50008630910509F442C04DC0EAE4F0E02091EE
:100B60000201309103018A819B81820F931F91833F
:100B7000808340C0E8E4F0E0209104013091050159
:100B80008A819B81820F931F9183808333C0E8E722
:100B9000F0E020910601309107018A819B81820F4C
:100BA000931F9183808326C0E6E8F0E0209108013E
:100BB000309109018A819B81820F931F91838083E9
:100BC00019C0E4E8F0E020910A0130910B018A811C
:100BD0009B81820F931F918380830CC0E2E8F0E039
:100BE00020910C0130910D018A819B81820F931F0E
:100BF000918380830F900F900F900F900F90CF9163
:100C0000DF910895DF93CF93CDB7DEB729970FB665
:100C1000F894DEBF0FBECDBF8B837D836C835F8373
:100C20004E838CE89AE09A8389838B81282F30E069
:100C300039872887488559854330510509F440C0D4
:100C400088859985843091055CF428853985213023
:100C50003105C1F0488559854230510511F16BC00D
:100C6000888599858530910509F448C0288539859E
:100C700025303105A4F1488559854630510509F4E0
:100C80004CC059C0EAE4F0E020813181809102013A
:100C900090910301A901481B590BCA019A838983CA
:100CA0004AC0E8E4F0E02081318180910401909114
:100CB0000501A901481B590BCA019A8389833BC0CE
:100CC000E8E7F0E0208131818091060190910701F1
:100CD000A901481B590BCA019A8389832CC0E6E8F5
:100CE000F0E0208131818091080190910901A901F2
:100CF000481B590BCA019A8389831DC0E4E8F0E0C0
:100D00002081318180910A0190910B01A901481B3A
:100D1000590BCA019A8389830EC0E2E8F0E0208172
:100D2000318180910C0190910D01A901481B590B53
:100D3000CA019A83898329813A818C819D81821796
:100D40009307C4F40FC089819A8101979A8389839C
:100D500029813A818B81B9010E9477058E819F811B
:100D60000E94060329813A818C819D818217930715
:100D700054F31EC029813A818C819D81281739073F
:100D8000BCF40FC089819A8101969A838983298155
:100D90003A818B81B9010E9477058E819F810E94E3
:100DA000060329813A818C819D812817390754F3E4
:100DB00029960FB6F894DEBF0FBECDBFCF91DF915D
:100DC0000895DF93CF93CDB7DEB7EBE3F0E0108269
:100DD000E8E3F0E01082E5E3F0E01082E2E3F0E027
:100DE0001082E3E2F0E01082E2E6F0E01082E5E655
:100DF000F0E088E08083EAE3F0E080EF8083E7E3DF
:100E0000F0E08FEF8083E4E3F0E08CEF8083E1E3B8
:100E1000F0E08BE08083E2E2F0E08AEF8083E1E6BD
:100E2000F0E01082E4E6F0E08FE18083F894E7E2FE
:100E3000F0E080EC8083E6E2F0E083EE8083EEE891
:100E4000F0E01082E3E5F0E08AE48083E1E5F0E0A1
:100E50008FEF8083E5E4F0E08AE08083E3E4F0E074
:100E60008CEC8083EFE4F0E088EA8083EEE4F0E04D
:100E700082E18083E6E4F0E080E090E59183808386
:100E8000EDE4F0E01082ECE4F0E01082EBE8F0E05A
:100E900088EA8083EAE8F0E082E18083E0E8F0E03D
:100EA00080E090E591838083E9E8F0E01082E8E853
:100EB000F0E010820E94BE04E8E9F0E01082E9E967
:100EC000F0E089E18083EBE9F0E01082EDE9F0E009
:100ED00086E08083EAE9F0E088E98083A7E5B0E076
:100EE000E7E5F0E0808180688C9378940E949A0214
:100EF00088EE93E00E9406030E94AF02CF91DF913B
:100F00000895DF93CF930F92CDB7DEB78983EBE9D6
:100F1000F0E08081882F90E0807290700097B9F3A4
:100F2000ECE9F0E0898180830F90CF91DF91089503
:100F3000DF93CF9300D0CDB7DEB79A8389830BC000
:100F4000E981FA81208189819A8101969A83898336
:100F5000822F0E948107E981FA818081882381F7AD
:100F60000F900F90CF91DF910895DF93CF9300D032
:100F700000D000D0CDB7DEB79E838D8303C08C81B7
:100F80000E9481078D819E819B838A838D819E81B2
:100F900001969E838D83EA81FB8184918983898177
:100FA0008C838C81882359F726960FB6F894DEBF80
:100FB0000FBECDBFCF91DF910895DF93CF9300D0C7
:100FC00000D0CDB7DEB79A8389836B834C838C8145
:100FD000282F30E089819A81820F931F9A83898319
:100FE0000EC0E981FA81208189819A8101969A83D4
:100FF0008983822F0E9481078B8181508B83E981B5
:10100000FA818081882319F08B81882351F70F9012
:101010000F900F900F90CF91DF910895DF93CF93B2
:10102000CDB7DEB764970FB6F894DEBF0FBECDBF65
:101030009B8B8A8B6C8B8C89482F50E08A899B898B
:101040009E012F5F3F4FB9010E942809CE010196F2
:101050000E94980764960FB6F894DEBF0FBECDBF0E
:10106000CF91DF910895DF93CF93CDB7DEB7669729
:101070000FB6F894DEBF0FBECDBF9C8B8B8B6D8BF4
:101080004E8B8D89482F50E08B899C899E012E5F65
:101090003F4FB9010E942809CE0102960E941F0904
:1010A000982F8E89891B8983898118167CF406C044
:1010B00089818150898380E30E9481078981181684
:1010C000BCF3CE0102960E94980709C089818195E0
:1010D000282FCE0102966E89422F0E94DD07669668
:1010E0000FB6F894DEBF0FBECDBFCF91DF9108954C
:1010F0001F920F920FB60F9211242F933F938F934D
:101100009F93EF93FF93DF93CF930F92CDB7DEB70B
:10111000ECE9F0E080818983809133018823B1F488
:1011200030913501832F90E02981FC01EA5CFE4F6C
:101130002083832F8F5F80933501909135018091BB
:101140003401981718F082E0809333010F90CF910B
:10115000DF91FF91EF919F918F913F912F910F9090
:101160000FBE0F901F901895DF93CF930F92CDB7BE
:10117000DEB7898310923501898180933401109202
:1011800033010F90CF91DF910895DF93CF93CDB7C7
:10119000DEB7809133018823E1F3CF91DF91089589
:1011A000DF93CF9300D00F92CDB7DEB79B838A83B6
:1011B000198213C08981282F30E08A819B81DC014C
:1011C000A20FB31F8981882F90E0FC01EA5CFE4FDB
:1011D00080818C9389818F5F89839091340189818B
:1011E000891740F381E0809333010F900F900F90A7
:1011F000CF91DF910895DF93CF93CDB7DEB71092F3
:10120000340181E080933301CF91DF910895DF9322
:10121000CF9300D00F92CDB7DEB789837B836A83EB
:1012200089810E94B4080E94C5088A819B810E941E
:10123000D0080F900F900F90CF91DF910895FC018F
:1012400001900020E9F7809590958E0F9F1F0895DB
:10125000FB019F01E8944230C4F04532B4F44A30B7
:1012600029F497FB1EF4909581959F4F642F772763
:101270000E948009805D8A330CF0895D8193CB01E7
:101280000097A1F716F45DE251931082C9010C9406
:101290007009DC01CB01FC01E199FECF06C0FFBB68
:1012A000EEBBE09A31960DB20D9241505040B8F726
:1012B0000895DC01CB0103C02D910E9464094150C7
:1012C0005040D0F70895262FE199FECF9FBB8EBBEB
:1012D0002DBB0FB6F894E29AE19A0FBE01960895DD
:1012E000DC01FC01672F71917723E1F7329704C08D
:1012F0007C916D9370836291AE17BF07C8F3089518
:10130000AA1BBB1B51E107C0AA1FBB1FA617B7072B
:1013100010F0A61BB70B881F991F5A95A9F7809547
:0C1320009095BC01CD010895F894FFCF1A
:00000001FF
