:100000000C9478000C9495000C9495000C94950039
:100010000C9495000C9495000C9495000C9495000C
:100020000C9495000C9463010C9495000C9495002D
:100030000C9495000C9495000C9495000C949500EC
:100040000C9495000C9495000C9495000C949500DC
:100050000C9495000C9495000C9495000C949500CC
:100060000C9495000C9495000C9495000C949500BC
:100070000C9495000C9495000C94F8070C94950042
:100080000C9495000C9495000C949500434E5431BB
:10009000203A2000092020434E5432203A20000903
:1000A000092020202020202020434E5433203A20B5
:1000B000005F5F5F5F5F5F5F5F5F5F5F5F5F5F5FAF
:1000C0005F5F5F5F5F5F5F5F5F5F5F0A0A000A52AB
:1000D0006F626F7461726D2053746F7077617463B7
:1000E000682044656D6F2050726F6772616D0A0001
:1000F00011241FBECFEFD0E1DEBFCDBF11E0A0E0E5
:10010000B1E0ECE2F2E102C005900D92A230B1073D
:10011000D9F711E0A2E0B1E001C01D92A934B10706
:10012000E1F70E9432010C9414090C940000DF9353
:10013000CF93CDB7DEB7809123019091240185360E
:100140009105D0F0809100019091010181309105DD
:1001500039F40E942F02109201011092000108C090
:100160000E94590281E090E0909301018093000188
:100170001092240110922301CF91DF910895DF9313
:10018000CF93CDB7DEB7809125019091260121E074
:1001900081399207B8F08CE890E00E943507809191
:1001A0000201882F90E06AE00E948E078AE00E9498
:1001B0000107809102018F5F809302011092260156
:1001C00010922501CF91DF910895DF93CF93CDB7A2
:1001D000DEB7809127019091280123E081329207B8
:1001E000B8F084E990E00E94350780910301882FE0
:1001F00090E062E00E948E078AE00E9401078091F1
:1002000003018F5F80930301109228011092270150
:10021000CF91DF910895DF93CF93CDB7DEB7809173
:10022000290190912A0124E0813B9207C0F08FE9D7
:1002300090E00E94350780910401882F90E060E1F2
:1002400042E00E94B3078AE00E9401078091040106
:100250008F5F8093040110922A0110922901CF919F
:10026000DF910895DF93CF93CDB7DEB70E9461068B
:100270008EEC90E00E94350781EB90E00E943507FC
:10028000809122018160809322018091220182600D
:1002900080932201809122018460809322018091C9
:1002A000220188608093220180E496E090932601E9
:1002B000809325010E9497000E94BF000E94E500E4
:1002C0000E940B01F7CF1F920F920FB60F921124CD
:1002D0008F939F93DF93CF9300D0CDB7DEB78091FC
:1002E000330190913401019690933401809333014E
:1002F000809135018A8319828A818A3010F081E0E9
:1003000089838A818F5F809335018981882309F4ED
:1003100086C080912201882F90E0817090708823A0
:1003200049F080912301909124010196909324013A
:100330008093230180912201882F90E08270907039
:10034000009749F0809125019091260101969093A4
:1003500026018093250180912201882F90E08470EE
:100360009070009749F080912701909128010196A3
:10037000909328018093270180912201882F90E09B
:1003800088709070009749F08091290190912A011E
:10039000019690932A018093290180912201882F50
:1003A00090E080719070009749F080912B019091BE
:1003B0002C01019690932C0180932B0180912201B6
:1003C000882F90E080729070009749F080912D0105
:1003D00090912E01019690932E0180932D01809192
:1003E0002201882F90E080749070009749F08091EE
:1003F0002F019091300101969093300180932F014D
:100400008091220188234CF4809131019091320136
:1004100001969093320180933101109235010F9033
:100420000F90CF91DF919F918F910F900FBE0F9002
:100430001F901895DF93CF93CDB7DEB7A5E6B0E058
:10044000E5E6F0E0808181608C93A5E6B0E0E5E62A
:10045000F0E080818D7F8C93CF91DF910895DF93C1
:10046000CF93CDB7DEB7A5E6B0E0E5E6F0E080815A
:100470008E7F8C93A5E6B0E0E5E6F0E080818260B7
:100480008C93CF91DF910895DF93CF93CDB7DEB7F3
:10049000A5E6B0E0E5E6F0E0808181608C93A5E61A
:1004A000B0E0E5E6F0E0808182608C93CF91DF914F
:1004B0000895DF93CF93CDB7DEB7A5E6B0E0E5E6CC
:1004C000F0E080818E7F8C93A5E6B0E0E5E6F0E079
:1004D00080818D7F8C93CF91DF910895DF93CF93AF
:1004E0000F92CDB7DEB78983109234011092330199
:1004F0008981282F30E08091330190913401821757
:100500009307B0F30F90CF91DF910895DF93CF93CE
:1005100000D00F92CDB7DEB79A83898303C08AE0FB
:100520000E946E021B8289819A81009711F081E0FE
:100530008B8389819A8101979A8389838B81882310
:1005400071F70F900F900F90CF91DF910895DF9387
:10055000CF93CDB7DEB7E3E5F0E08AE68083CF91B5
:10056000DF910895DF93CF93CDB7DEB7E3E5F0E0F9
:100570008AE48083CF91DF910895DF93CF9300D0F9
:10058000CDB7DEB79A838983E1E5F0E08981808386
:100590000F900F90CF91DF910895DF93CF93CDB758
:1005A000DEB728970FB6F894DEBF0FBECDBFEBE3E2
:1005B000F0E080E1808382E090E00E94860281E0AA
:1005C00090E09C838B83E9E3F0E08081882F90E0CA
:1005D0009A8389831E821D821EC029813A818B8164
:1005E0009C81282339238B819C812817390741F46A
:1005F0008D819E819C012F5F3F4F38872F83BDC027
:100600008B819C81880F991F9C838B838D819E8118
:1006100001969E838D838D819E8184309105ECF2BD
:10062000EBE3F0E080E2808382E090E00E948602CB
:1006300081E090E09C838B83E9E3F0E08081882F68
:1006400090E09A8389831E821D821EC029813A818F
:100650008B819C81282339238B819C812817390722
:1006600041F48D819E819C012B5F3F4F38872F8302
:1006700084C08B819C81880F991F9C838B838D8183
:100680009E8101969E838D838D819E81843091050C
:10069000ECF2EBE3F0E080E4808382E090E00E9403
:1006A000860281E090E09C838B83E9E3F0E0808127
:1006B000882F90E09A8389831E821D821EC0298123
:1006C0003A818B819C81282339238B819C81281737
:1006D000390741F48D819E819C01275F3F4F388708
:1006E0002F834BC08B819C81880F991F9C838B83A8
:1006F0008D819E8101969E838D838D819E81843024
:100700009105ECF2EBE3F0E080E8808382E090E09A
:100710000E94860281E090E09C838B83E9E3F0E015
:100720008081882F90E09A8389831E821D821EC05B
:1007300029813A818B819C81282339238B819C815B
:100740002817390741F48D819E819C01235F3F4F1B
:1007500038872F8312C08B819C81880F991F9C83BF
:100760008B838D819E8101969E838D838D819E8159
:1007700084309105ECF218861F828F819885289627
:100780000FB6F894DEBF0FBECDBFCF91DF910895B5
:10079000DF93CF93CDB7DEB728970FB6F894DEBFBF
:1007A0000FBECDBF98878F831E821D821C821B8245
:1007B0001A821982E4E2F0E01082E5E2F0E01082B1
:1007C000A7E2B0E0E7E2F0E08081807E8C93A7E2D0
:1007D000B0E0E7E2F0E08081982F8F81892B8C9345
:1007E0008AE090E00E948602A6E2B0E0E6E2F0E055
:1007F000808180648C93E6E2F0E08081882F90E035
:10080000807190700097B9F3A6E2B0E0E6E2F0E004
:10081000808180618C93E4E2F0E08081882F90E019
:100820009E838D83E5E2F0E08081882F90E09C83B9
:100830008B838B819C81382F22278D819E81822BF7
:10084000932B9A83898389819A8128960FB6F8948D
:10085000DEBF0FBECDBFCF91DF910895DF93CF9361
:10086000CDB7DEB785E091E020E030E0B9014EE0A1
:1008700050E00E94D908CF91DF910895DF93CF9384
:10088000CDB7DEB785E091E020E030E0B9014EE081
:1008900050E00E94C90880910701909108012FEF54
:1008A0008F3F920731F48CED95E09093080180938F
:1008B00007018091090190910A012FEF8F3F920764
:1008C00031F48CED95E090930A01809309018091B9
:1008D0000B0190910C012FEF8F3F920731F48CEDBB
:1008E00095E090930C0180930B0180910D01909104
:1008F0000E012FEF8F3F920731F48CED95E090932E
:100900000E0180930D0180910F01909110012FEF46
:100910008F3F920731F48CED95E090931001809316
:100920000F0180911101909112012FEF8F3F9207DB
:1009300031F48CED95E090931201809311010E94A7
:10094000C004CF91DF910895DF93CF93CDB7DEB789
:10095000A5E6B0E0E5E6F0E08081877F8C93CF915B
:10096000DF910895DF93CF93CDB7DEB7A5E6B0E072
:10097000E5E6F0E0808188608C93CF91DF91089567
:10098000DF93CF93CDB7DEB7EAE4F0E080910701C3
:100990009091080191838083E8E4F0E0809109015F
:1009A00090910A0191838083E8E7F0E080910B0148
:1009B00090910C0191838083E6E8F0E080910D0135
:1009C00090910E0191838083E4E8F0E080910F0123
:1009D0009091100191838083E2E8F0E08091110111
:1009E0009091120191838083CF91DF910895DF93DD
:1009F000CF9300D000D00F92CDB7DEB789837B8331
:100A00006A838981282F30E03D832C838C819D81EE
:100A100083309105E1F12C813D81243031055CF476
:100A20008C819D8181309105C1F02C813D812230E6
:100A3000310501F15FC08C819D818530910509F4FC
:100A400040C02C813D812530310574F18C819D8120
:100A50008630910509F442C04DC0EAE4F0E02091EF
:100A60000701309108018A819B81820F931F918336
:100A7000808340C0E8E4F0E02091090130910A0150
:100A80008A819B81820F931F9183808333C0E8E723
:100A9000F0E020910B0130910C018A819B81820F43
:100AA000931F9183808326C0E6E8F0E020910D013A
:100AB00030910E018A819B81820F931F91838083E5
:100AC00019C0E4E8F0E020910F01309110018A8113
:100AD0009B81820F931F918380830CC0E2E8F0E03A
:100AE00020911101309112018A819B81820F931F05
:100AF000918380830F900F900F900F900F90CF9164
:100B0000DF910895DF93CF93CDB7DEB729970FB666
:100B1000F894DEBF0FBECDBF8B837D836C835F8374
:100B20004E838CE89AE09A8389838B81282F30E06A
:100B300039872887488559854330510509F440C0D5
:100B400088859985843091055CF428853985213024
:100B50003105C1F0488559854230510511F16BC00E
:100B6000888599858530910509F448C0288539859F
:100B700025303105A4F1488559854630510509F4E1
:100B80004CC059C0EAE4F0E0208131818091070136
:100B900090910801A901481B590BCA019A838983C6
:100BA0004AC0E8E4F0E02081318180910901909110
:100BB0000A01A901481B590BCA019A8389833BC0CA
:100BC000E8E7F0E02081318180910B0190910C01E8
:100BD000A901481B590BCA019A8389832CC0E6E8F6
:100BE000F0E02081318180910D0190910E01A901E9
:100BF000481B590BCA019A8389831DC0E4E8F0E0C1
:100C00002081318180910F0190911001A901481B31
:100C1000590BCA019A8389830EC0E2E8F0E0208173
:100C200031818091110190911201A901481B590B4A
:100C3000CA019A83898329813A818C819D81821797
:100C40009307C4F40FC089819A8101979A8389839D
:100C500029813A818B81B9010E94F7048E819F819D
:100C60000E94860229813A818C819D818217930797
:100C700054F31EC029813A818C819D812817390740
:100C8000BCF40FC089819A8101969A838983298156
:100C90003A818B81B9010E94F7048E819F810E9465
:100CA000860229813A818C819D812817390754F366
:100CB00029960FB6F894DEBF0FBECDBFCF91DF915E
:100CC0000895DF93CF93CDB7DEB7EBE3F0E010826A
:100CD000E8E3F0E01082E5E3F0E01082E2E3F0E028
:100CE0001082E3E2F0E01082E2E6F0E01082E5E656
:100CF000F0E088E08083EAE3F0E080EF8083E7E3E0
:100D0000F0E08FEF8083E4E3F0E08CEF8083E1E3B9
:100D1000F0E08BE08083E2E2F0E08AEF8083E1E6BE
:100D2000F0E01082E4E6F0E08FE18083F894E7E2FF
:100D3000F0E080EC8083E6E2F0E083EE8083EEE892
:100D4000F0E01082E3E5F0E08AE48083E1E5F0E0A2
:100D50008FEF8083E5E4F0E08AE08083E3E4F0E075
:100D60008CEC8083EFE4F0E088EA8083EEE4F0E04E
:100D700082E18083E6E4F0E080E090E59183808387
:100D8000EDE4F0E01082ECE4F0E01082EBE8F0E05B
:100D900088EA8083EAE8F0E082E18083E0E8F0E03E
:100DA00080E090E591838083E9E8F0E01082E8E854
:100DB000F0E010820E943E04E8E9F0E01082E9E9E8
:100DC000F0E089E18083EBE9F0E01082EDE9F0E00A
:100DD00086E08083EAE9F0E088E98083A7E5B0E077
:100DE000E7E5F0E0808180688C9378940E941A0295
:100DF00088EE93E00E9486020E942F02CF91DF913D
:100E00000895DF93CF930F92CDB7DEB78983EBE9D7
:100E1000F0E08081882F90E0807290700097B9F3A5
:100E2000ECE9F0E0898180830F90CF91DF91089504
:100E3000DF93CF9300D0CDB7DEB79A8389830BC001
:100E4000E981FA81208189819A8101969A83898337
:100E5000822F0E940107E981FA818081882381F72E
:100E60000F900F90CF91DF910895DF93CF9300D033
:100E700000D000D0CDB7DEB79E838D8303C08C81B8
:100E80000E9401078D819E819B838A838D819E8133
:100E900001969E838D83EA81FB8184918983898178
:100EA0008C838C81882359F726960FB6F894DEBF81
:100EB0000FBECDBFCF91DF910895DF93CF9300D0C8
:100EC00000D0CDB7DEB79A8389836B834C838C8146
:100ED000282F30E089819A81820F931F9A8389831A
:100EE0000EC0E981FA81208189819A8101969A83D5
:100EF0008983822F0E9401078B8181508B83E98136
:100F0000FA818081882319F08B81882351F70F9013
:100F10000F900F900F90CF91DF910895DF93CF93B3
:100F2000CDB7DEB764970FB6F894DEBF0FBECDBF66
:100F30009B8B8A8B6C8B8C89482F50E08A899B898C
:100F40009E012F5F3F4FB9010E94A808CE01019674
:100F50000E94180764960FB6F894DEBF0FBECDBF8F
:100F6000CF91DF910895DF93CF93CDB7DEB766972A
:100F70000FB6F894DEBF0FBECDBF9C8B8B8B6D8BF5
:100F80004E8B8D89482F50E08B899C899E012E5F66
:100F90003F4FB9010E94A808CE0102960E949F0807
:100FA000982F8E89891B8983898118167CF406C045
:100FB00089818150898380E30E9401078981181605
:100FC000BCF3CE0102960E94180709C08981819561
:100FD000282FCE0102966E89422F0E945D076696E9
:100FE0000FB6F894DEBF0FBECDBFCF91DF9108954D
:100FF0001F920F920FB60F9211242F933F938F934E
:101000009F93EF93FF93DF93CF930F92CDB7DEB70C
:10101000ECE9F0E080818983809136018823B1F486
:1010200030913801832F90E02981FC01E75CFE4F6D
:101030002083832F8F5F80933801909138018091B6
:101040003701981718F082E0809336010F90CF9106
:10105000DF91FF91EF919F918F913F912F910F9091
:101060000FBE0F901F901895DF93CF930F92CDB7BF
:10107000DEB78983109238018981809337011092FD
:1010800036010F90CF91DF910895DF93CF93CDB7C5
:10109000DEB7809136018823E1F3CF91DF91089587
:1010A000DF93CF9300D00F92CDB7DEB79B838A83B7
:1010B000198213C08981282F30E08A819B81DC014D
:1010C000A20FB31F8981882F90E0FC01E75CFE4FDF
:1010D00080818C9389818F5F898390913701898189
:1010E000891740F381E0809336010F900F900F90A5
:1010F000CF91DF910895DF93CF93CDB7DEB71092F4
:10110000370181E080933601CF91DF910895DF931D
:10111000CF9300D00F92CDB7DEB789837B836A83EC
:1011200089810E9434080E9445088A819B810E941F
:1011300050080F900F900F90CF91DF910895FC0110
:1011400001900020E9F7809590958E0F9F1F0895DC
:10115000FB019F01E8944230C4F04532B4F44A30B8
:1011600029F497FB1EF4909581959F4F642F772764
:101170000E940009805D8A330CF0895D8193CB0168
:101180000097A1F716F45DE251931082C9010C9407
:10119000F008DC01CB01FC01E199FECF06C0FFBBEA
:1011A000EEBBE09A31960DB20D9241505040B8F727
:1011B0000895DC01CB0103C02D910E94E408415049
:1011C0005040D0F70895262FE199FECF9FBB8EBBEC
:1011D0002DBB0FB6F894E29AE19A0FBE01960895DE
:1011E000DC01FC01672F71917723E1F7329704C08E
:1011F0007C916D9370836291AE17BF07C8F3089519
:10120000AA1BBB1B51E107C0AA1FBB1FA617B7072C
:1012100010F0A61BB70B881F991F5A95A9F7809548
:0C1220009095BC01CD010895F894FFCF1B
:02122C000100BF
:00000001FF
