:100000000C946F010C948C010C948C010C948C0159
:100010000C948C010C948C010C948C010C948C012C
:100020000C948C010C94A7020C948C010C948C0100
:100030000C948C010C948C010C948C010C948C010C
:100040000C948C010C948C010C948C010C948C01FC
:100050000C948C010C948C010C948C010C948C01EC
:100060000C948C010C948C010C948C010C948C01DC
:100070000C948C010C948C010C948B060C948C01C8
:100080000C948C010C948C010C948C010A48656CC6
:100090006C6F21204D79206E616D6520697320524F
:1000A0006F626F7441726D790A00756E74696C20AD
:1000B000736F6D656F6E6520726573657473206D07
:1000C00065210A004F4B20676F6F642062796521BC
:1000D00020492077696C6C2077616974200A004799
:1000E0007265617421204865726520776520676FAD
:1000F00020616761696E2E2E2E0A0057656C6C2C8C
:1001000020696620796F7520646F6E27742077618F
:100110006E7420746861742E2E2E203A2A28200ACC
:10012000004F68202E2E2E2069742773206F76656D
:1001300072210A004E6F7720796F752067657420F1
:1001400061206C656420616E642062656570657213
:100150002073686F77210A004F4B207468656E2EFC
:100160002E2E206C65742773206D6F7665206F6E60
:10017000210A000A0A546861742773206974210AED
:100180000A004865726520776520676F210A0022A2
:10019000202120477565737320776861743F204E76
:1001A0006F626F64792063617265732E2E2E203B1F
:1001B0002D290A00536F20796F75722061676520C1
:1001C00069733A2022002220210A0048656C6C6F76
:1001D000202200446F20796F752077616E7420743F
:1001E0006F20646F20616C6C207468697320616794
:1001F00061696E3F2028227922206F7220226E22B0
:10020000290A00446F20796F752077616E7420741D
:100210006F2073656520626C696E6B696E67204C38
:1002200045447320616E642068656172207468655E
:100230002062656570657220736F756E643F20285B
:10024000227922206F7220226E22290A00446F2018
:10025000796F752077616E7420746F2073656520E7
:10026000736F6D652054657874206F757470757444
:100270003F2028227922206F7220226E22290A0034
:10028000486F77206F6C642061726520796F753FCD
:100290002028456E74657220322063686172616344
:1002A0007465727320706C65617365290A00576804
:1002B0006174277320796F7572206E616D653F20C0
:1002C00028456E74657220382063686172616374BA
:1002D00065727320706C65617365290A00001124D2
:1002E0001FBECFEFD0E1DEBFCDBF11E0A0E0B1E097
:1002F000EAEAFFE002C005900D92A034B107D9F7F9
:1003000011E0A0E4B1E001C01D92A538B107E1F70A
:100310000E9495020C94D3070C94000086E990E0AB
:100320000E947B030E9475030E94310384EF91E0D9
:100330000E94630388EC90E00E947B030E943A03D2
:1003400084EF91E00E9463038FEF90E00E947B03B3
:100350000E94430384EF91E00E9463030E944C03D8
:100360000E94780308950F931F9300E080E091E0CE
:100370006AE0402F0E94790680E20E94550610E054
:1003800004C083E20E9455061F5F1017D0F388EC6B
:1003900090E00E9463038AE00E9455060F5F0533D8
:1003A00029F71F910F910895CF92DF92FF920F933B
:1003B0001F93DF93CF93CDB7DEB7CDB6DEB6809176
:1003C00050018230D1F083302CF4882341F0813009
:1003D000F1F40CC08330A1F08430C9F414C08EEA6B
:1003E00092E00E946A0698E0F92E13C080E892E03D
:1003F0000E946A0682E0F82E0CC08DE492E005C0EF
:1004000083E092E002C083ED91E00E946A06FF243F
:10041000F3948DB79EB78F1991090FB6F8949EBFCC
:100420000FBE8DBF0DB71EB70F5F1F4F8F2D0E94E0
:10043000BE060E94C506C8010E94CA0680915001EE
:10044000823031F1833034F4882351F0813009F067
:100450005AC012C0833071F1843009F054C03EC0DC
:100460008BEC91E00E946A06C8016F2D40E00E946B
:10047000790686EC91E018C084EB91E00E946A0650
:10048000C8016F2D40E00E9479068FE891E00CC012
:10049000F8018081893759F482E891E00E946A0668
:1004A0000E94B30183E791E00E946A062CC088E5B0
:1004B00091E0FACFF8018081893769F484E391E013
:1004C0000E946A0610E00E948E011F5F1A30D9F761
:1004D00081E291E0E9CF8BEF90E0E6CFF8018081F7
:1004E000893731F48FED90E00E946A068FEF09C0E2
:1004F00084EC90E00E946A068AEA90E00E946A0614
:100500008EEF80935001809150018F5F8093500156
:100510000FB6F894DEBE0FBECDBECF91DF911F9116
:100520000F91FF90DF90CF900895109250010E949C
:10053000D3050E948E018CE890E00E946A068091AB
:1005400050018F3F19F00E94D401F9CFFFCF1F92C5
:100550000F920FB60F9211248F939F9380916F018A
:100560009091700101969093700180936F0180913A
:1005700071018F5F8093710181508A3008F46AC0E5
:1005800080915E0180FF09C080915F0190916001C0
:1005900001969093600180935F0180915E0181FFDD
:1005A00009C080916101909162010196909362016E
:1005B0008093610180915E0182FF09C08091630197
:1005C00090916401019690936401809363018091FE
:1005D0005E0183FF09C080916501909166010196DB
:1005E000909366018093650180915E0184FF09C04C
:1005F00080916701909168010196909368018093C2
:10060000670180915E0185FF09C080916901909129
:100610006A01019690936A018093690180915E015D
:1006200086FF09C080916B0190916C0101969093B7
:100630006C0180936B0180915E0187FF09C08091FE
:100640006D0190916E01019690936E0180936D0102
:10065000109271019F918F910F900FBE0F901F907C
:100660001895E5E6F0E080818160808380818D7F50
:1006700080830895E5E6F0E080818E7F808380812D
:10068000826080830895E5E6F0E080818160808368
:100690008081826080830895E5E6F0E080818E7F2E
:1006A000808380818D7F80830895109270011092E5
:1006B0006F01282F30E080916F01909170018217B7
:1006C0009307C8F308959C010CC01092700110921A
:1006D0006F0180916F01909170010A97D0F32150C2
:1006E00030402115310589F708958AE683BF0895C2
:1006F0008AE483BF089581BF089580E18BBB22E027
:1007000030E00AC01092700110926F0180916F0169
:10071000909170010A97D0F3215030408FEF2F3F16
:10072000380781F789B3682F70E040E050E021E09E
:1007300030E0C901862397234F5F5F4F82179307ED
:1007400011F49A0192C04430510519F0220F331F61
:10075000F0CF80E28BBB22E030E00AC01092700143
:1007600010926F0180916F01909170010A97D0F300
:10077000215030408FEF2F3F380781F789B3682F22
:1007800070E040E050E021E030E0C901862397238B
:100790008217930721F49A012B5F3F4F66C04F5F8A
:1007A0005F4F4430510519F0220F331FEECF80E424
:1007B0008BBB22E030E00AC01092700110926F01F2
:1007C00080916F01909170010A97D0F321503040D1
:1007D0008FEF2F3F380781F789B3682F70E040E033
:1007E00050E021E030E0C901862397238217930768
:1007F00021F49A01275F3F4F38C04F5F5F4F44306D
:10080000510519F0220F331FEECF80E88BBB22E099
:1008100030E00AC01092700110926F0180916F0158
:10082000909170010A97D0F3215030408FEF2F3F05
:10083000380781F789B3682F70E040E050E021E08D
:1008400030E0C901862397238217930721F49A0188
:10085000235F3F4F0AC04F5F5F4F4430510519F08F
:10086000220F331FEECF20E030E0C901089514B805
:1008700015B897B1907E97B997B1982B97B92AE0A0
:1008800030E00AC01092700110926F0180916F01E8
:10089000909170010A97D0F3215030408FEF2F3F95
:1008A000380781F7369A349BFECF349A24B145B18C
:1008B000942F80E030E0282B392BC9010895E5E61C
:1008C000F0E08081877F80830895E5E6F0E0808115
:1008D00088608083089580914201909143019BBD7F
:1008E0008ABD809144019091450199BD88BD809158
:1008F0004601909147019093790080937800809110
:1009000048019091490190938700809386008091DF
:100910004A0190914B0190938500809384008091CF
:100920004C0190914D019093830080938200089533
:10093000833009F1843030F4813059F0823009F08D
:1009400045C010C0853069F1853000F18630F1F581
:1009500033C08091420190914301860F971F9BBD48
:100960008ABD08958091440190914501860F971F9B
:1009700099BD88BD08958091460190914701860FE9
:10098000971F909379008093780008958091480193
:1009900090914901860F971F90938700809386005E
:1009A000089580914A0190914B01860F971F909373
:1009B000850080938400089580914C0190914D01B1
:1009C000860F971F90938300809382000895DF9293
:1009D000EF92FF920F931F93CF93DF93182F7B011A
:1009E000D42E052F8330F1F0843028F4813061F06B
:1009F000823039F410C0853039F18530E0F086302E
:100A000061F1CCE8DAE033C0CAB5DBB580914201D0
:100A1000909143012AC0C8B5D9B580914401909105
:100A2000450123C0C0917800D091790080914601A2
:100A3000909147011AC0C0918600D09187008091A3
:100A400048019091490111C0C0918400D091850066
:100A500080914A0190914B0108C0C0918200D091D1
:100A6000830080914C0190914D01C81BD90BEC166D
:100A7000FD06E4F42197812FBE010E9498048D2D7C
:100A8000902F9C010CC01092700110926F01809108
:100A90006F01909170010A97D0F3215030402115D9
:100AA000310589F7EC16FD062CF31CC0CE15DF05C9
:100AB000CCF42196812FBE010E9498048D2D902F99
:100AC0009C010CC01092700110926F0180916F0117
:100AD000909170010A97D0F32150304021153105D3
:100AE00029F3F0CFDF91CF911F910F91FF90EF90FD
:100AF000DF90089580E491E060E070E04EE050E027
:100B00000E94880780914201909143018F5F9F4F1F
:100B100031F48CED95E090934301809342018091F4
:100B20004401909145018F5F9F4F31F48CED95E02A
:100B30009093450180934401809146019091470133
:100B40008F5F9F4F31F48CED95E090934701809338
:100B5000460180914801909149018F5F9F4F31F488
:100B60008CED95E0909349018093480180914A0172
:100B700090914B018F5F9F4F31F48CED95E09093F6
:100B80004B0180934A0180914C0190914D018F5F00
:100B90009F4F31F48CED95E090934D0180934C0183
:100BA0000E946B0408951BBA18BA15BA12BA13B88A
:100BB0001092620088E08093650080EF8ABB8FEF1F
:100BC00087BB8CEF84BB8BE081BB8AEF82B910922C
:100BD00061008FE180936400F89480EC87B983EE24
:100BE00086B910928E008AE483BF8FEF81BF8AE0BE
:100BF00085BD8CEC83BD38EA3FBD22E12EBD80E08F
:100C000090E597BD86BD1DBC1CBC30938B00209326
:100C10008A00909381008093800010928900109246
:100C200088000E947A051092980089E180939900CB
:100C300010929B0086E080939D0088E980939A0043
:100C400087B7806887BF78948091650081608093C2
:100C50006500809165008D7F8093650028EE33E00C
:100C60000AC01092700110926F0180916F019091F3
:100C700070010A97D0F3215030408FEF2F3F380793
:100C800081F7809165008E7F80936500809165007B
:100C9000826080936500089580E491E060E070E0F8
:100CA0004EE050E00E9498070895982F80919B0095
:100CB00085FFFCCF90939C000895FC0107C08091B4
:100CC0009B0085FFFCCF319690939C0090819923E7
:100CD000B1F708959C0106C080919B0085FFFCCF71
:100CE00090939C00F9012F5F3F4F94919923A1F7B6
:100CF0000895FC01E40FF11D08C080919B0085FF61
:100D0000FCCF319690939C0061509081992311F013
:100D1000662399F708951F920F920FB60F92112430
:100D20008F939F93EF93FF93DF93CF930F92CDB762
:100D3000DEB780919C00898380917201882391F4B1
:100D400090917401E92FF0E08981EB58FE4F808388
:100D50009F5F9093740180917301981718F082E05F
:100D6000809372010F90CF91DF91FF91EF919F914E
:100D70008F910F900FBE0F901F90189510927401D5
:100D800080937301109272010895809172018823FB
:100D9000E1F30895AC0120E00AC0E22FF0E0DF01AA
:100DA000AB58BE4F8C91E40FF51F80832F5F80916D
:100DB0007301281790F381E08093720108951092D7
:100DC000730181E080937201089510927401809301
:100DD000730110927201809172018823E1F390E017
:100DE0000AC0E92FF0E0DF01AB58BE4F8C91E60F4F
:100DF000F71F80839F5F80917301981790F381E0C4
:100E00008093720108950F931F93DF93CF93CDB713
:100E1000DEB761970FB6F894DEBF0FBECDBF462F89
:100E20008E010F5F1F4FB80150E00E946707C80195
:100E30000E945D0661960FB6F894DEBF0FBECDBF6F
:100E4000CF91DF911F910F910895FF920F931F9300
:100E5000DF93CF93CDB7DEB761970FB6F894DEBFBF
:100E60000FBECDBF262FF42E8E010F5F1F4FB8018E
:100E7000422F50E00E946707F80101900020E9F737
:100E80003197E01BF10B4F2D4E1B14167CF490E3B1
:100E9000415080919B0085FFFCCF90939C004423A0
:100EA000B9F7CE0101960E945D0605C04195C801C3
:100EB0006F2D0E94790661960FB6F894DEBF0FBEC3
:100EC000CDBFCF91DF911F910F91FF900895FB014E
:100ED0009F01E8944230C4F04532B4F44A3029F41A
:100EE00097FB1EF4909581959F4F642F77270E9462
:100EF000BF07805D8A330CF0895D8193CB01009739
:100F0000A1F716F45DE251931082C9010C94AF076A
:100F1000DC01CB01FC01E199FECF06C0FFBBEEBBBB
:100F2000E09A31960DB20D9241505040B8F70895B5
:100F3000DC01CB0103C02D910E94A307415050401A
:100F4000D0F70895262FE199FECF9FBB8EBB2DBB16
:100F50000FB6F894E29AE19A0FBE01960895DC016B
:100F6000FC01672F71917723E1F7329704C07C91E0
:100F70006D9370836291AE17BF07C8F30895AA1BE3
:100F8000BB1B51E107C0AA1FBB1FA617B70710F074
:100F9000A61BB70B881F991F5A95A9F780959095A6
:0A0FA000BC01CD010895F894FFCFC5
:100FAA0031323334353637383930616263646566D5
:100FBA006768696A6B6C6D6E6F707172737475763F
:100FCA007778797A4142434445464748494A4B4CE7
:100FDA004D4E4F505152535455565758595A000076
:00000001FF
