:100000000C9478000C948A000C948A000C948A005A
:100010000C948A000C948A000C948A000C948A0038
:100020000C948A000C943A020C948A000C948A0076
:100030000C948A000C948A000C948A000C948A0018
:100040000C948A000C948A000C948A000C948A0008
:100050000C948A000C948A000C948A000C948A00F8
:100060000C948A000C948A000C948A000C948A00E8
:100070000C948A000C948A000C94CF080C948A008B
:100080000C948A000C948A000C948A000A00204385
:10009000555252454E5420544F4F2048494748210D
:1000A000005741524E494E473A20534552564F2031
:1000B0000020207C43757220363A200020207C43AB
:1000C000757220353A200020207C43757220343A26
:1000D000200020207C43757220333A200020207CB1
:1000E00043757220323A200043757220313A200065
:1000F00011241FBECFEFD0E1DEBFCDBF11E0A0E0E5
:10010000B1E001C01D92A434B107E1F70E94A20141
:100110000C94EB090C940000DF93CF9300D000D037
:1001200000D0CDB7DEB79A8389837C836B835E83EF
:100130004D8381EA90E00E940C0889819A816AE0EF
:1001400041E00E948A088EE890E00E940C088CE84A
:1001500090E00E940C0826960FB6F894DEBF0FBE02
:10016000CDBFCF91DF910895DF93CF93CDB7DEB7A9
:1001700080E090E00E949F04909311018093100111
:1001800088EE90E00E940C0880911001909111017E
:100190006AE043E00E948A0881E090E00E949F04A8
:1001A00090931301809312018DED90E00E940C0852
:1001B00080911201909113016AE043E00E948A0845
:1001C00082E090E00E949F049093170180931601B3
:1001D00082ED90E00E940C08809116019091170129
:1001E0006AE043E00E948A0883E090E00E949F0456
:1001F00090930F0180930E0187EC90E00E940C0811
:1002000080910E0190910F016AE043E00E948A08FC
:1002100084E090E00E949F0490931901809318015C
:100220008CEB90E00E940C088091180190911901CC
:100230006AE043E00E948A0885E090E00E949F0403
:10024000909315018093140181EB90E00E940C08BB
:1002500080911401909115016AE043E00E948A08A0
:100260008AE00E94D80780911001909111018D338E
:1002700091055CF0209110013091110181E090E036
:10028000B9014CE350E00E948C00809112019091E2
:1002900013018D3391055CF020911201309113010F
:1002A00082E090E0B9014CE350E00E948C00809124
:1002B0001601909117018D3391055CF02091160184
:1002C0003091170183E090E0B9014CE350E00E94C7
:1002D0008C0080910E0190910F01813591055CF0A9
:1002E00020910E0130910F0184E090E0B90140E5CA
:1002F00050E00E948C00809118019091190187397B
:1003000091055CF0209118013091190185E090E091
:10031000B90146E950E00E948C008091140190914F
:100320001501873991055CF0209114013091150178
:1003300086E090E0B90146E950E00E948C00CF9140
:10034000DF910895DF93CF93CDB7DEB70E943807D2
:100350000E9497050E947B0580E293E00E945D0366
:100360000E94B40085E06CEB72E043E050E00E9434
:1003700059060E94B40083E064E47DEF42E050E05F
:100380000E9459060E94B40084E064E47DEF42E0DC
:1003900050E00E9459060E94B40086E064EF71E0CC
:1003A00041E050E00E9459060E94B40081E06CE0F8
:1003B0007EEF41E050E00E9459060E94B40081E0C7
:1003C00060E070E041E050E00E9459060E94B400F5
:1003D00081E06CE07EEF41E050E00E9459060E940F
:1003E000B40081E060E070E041E050E00E94590616
:1003F0000E94B40086E060E070E041E050E00E94BE
:1004000059060E94B40084E060E070E042E050E0F1
:100410000E9459060E94B40083E060E070E042E070
:1004200050E00E9459060E94B40081E06CE07EEF2B
:1004300041E050E00E9459060E94B40081E060E073
:1004400070E041E050E00E9459060E94B40081E053
:100450006CE07EEF41E050E00E9459060E94B4003B
:1004600081E060E070E041E050E00E9459060E94A7
:10047000B40072CF1F920F920FB60F9211248F9378
:100480009F93DF93CF9300D0CDB7DEB780912E013D
:1004900090912F01019690932F0180932E018091CE
:1004A00030018A8319828A818A3010F081E0898341
:1004B0008A818F5F809330018981882309F486C007
:1004C00080911D01882F90E081709070882349F001
:1004D00080911E0190911F01019690931F018093BE
:1004E0001E0180911D01882F90E08270907000970E
:1004F00049F0809120019091210101969093210172
:100500008093200180911D01882F90E0847090706D
:10051000009749F0809122019091230101969093D8
:1005200023018093220180911D01882F90E0887023
:100530009070009749F080912401909125010196D7
:10054000909325018093240180911D01882F90E0D4
:1005500080719070009749F0809126019091270159
:100560000196909327018093260180911D01882F89
:1005700090E080729070009749F0809128019091EE
:1005800029010196909329018093280180911D01F2
:10059000882F90E080749070009749F080912A0134
:1005A00090912B01019690932B0180932A018091C9
:1005B0001D0188234CF480912C0190912D0101960E
:1005C00090932D0180932C01109230010F900F9089
:1005D000CF91DF919F918F910F900FBE0F901F9041
:1005E0001895DF93CF93CDB7DEB7A5E6B0E0E5E68B
:1005F000F0E0808181608C93A5E6B0E0E5E6F0E074
:1006000080818D7F8C93CF91DF910895DF93CF937D
:10061000CDB7DEB7A5E6B0E0E5E6F0E080818E7FFD
:100620008C93A5E6B0E0E5E6F0E0808182608C93F3
:10063000CF91DF910895DF93CF93CDB7DEB7A5E6D5
:10064000B0E0E5E6F0E0808181608C93A5E6B0E063
:10065000E5E6F0E0808182608C93CF91DF91089590
:10066000DF93CF93CDB7DEB7A5E6B0E0E5E6F0E0E7
:1006700080818E7F8C93A5E6B0E0E5E6F0E0808196
:100680008D7F8C93CF91DF910895DF93CF930F925D
:10069000CDB7DEB7898310922F0110922E01898188
:1006A000282F30E080912E0190912F01821793071F
:1006B000B0F30F90CF91DF910895DF93CF9300D0E7
:1006C0000F92CDB7DEB79A83898303C08AE00E9478
:1006D00045031B8289819A81009711F081E08B8309
:1006E00089819A8101979A8389838B81882371F705
:1006F0000F900F900F90CF91DF910895DF93CF93DC
:10070000CDB7DEB7E3E5F0E08AE68083CF91DF91F5
:100710000895DF93CF93CDB7DEB7E3E5F0E08AE449
:100720008083CF91DF910895DF93CF9300D0CDB731
:10073000DEB79A838983E1E5F0E0898180830F90B9
:100740000F90CF91DF910895DF93CF93CDB7DEB7B0
:1007500028970FB6F894DEBF0FBECDBFEBE3F0E0F5
:1007600080E1808382E090E00E945D0381E090E080
:100770009C838B83E9E3F0E08081882F90E09A836B
:1007800089831E821D821EC029813A818B819C81B2
:10079000282339238B819C812817390741F48D81C7
:1007A0009E819C012F5F3F4F38872F83BDC08B8177
:1007B0009C81880F991F9C838B838D819E810196DC
:1007C0009E838D838D819E8184309105ECF2EBE3D5
:1007D000F0E080E2808382E090E00E945D0381E0AF
:1007E00090E09C838B83E9E3F0E08081882F90E0A8
:1007F0009A8389831E821D821EC029813A818B8142
:100800009C81282339238B819C812817390741F447
:100810008D819E819C012B5F3F4F38872F8384C041
:100820008B819C81880F991F9C838B838D819E81F6
:1008300001969E838D838D819E8184309105ECF29B
:10084000EBE3F0E080E4808382E090E00E945D03CF
:1008500081E090E09C838B83E9E3F0E08081882F46
:1008600090E09A8389831E821D821EC029813A816D
:100870008B819C81282339238B819C812817390700
:1008800041F48D819E819C01275F3F4F38872F83E4
:100890004BC08B819C81880F991F9C838B838D819A
:1008A0009E8101969E838D838D819E8184309105EA
:1008B000ECF2EBE3F0E080E8808382E090E00E94DD
:1008C0005D0381E090E09C838B83E9E3F0E080812D
:1008D000882F90E09A8389831E821D821EC0298101
:1008E0003A818B819C81282339238B819C81281715
:1008F000390741F48D819E819C01235F3F4F3887EA
:100900002F8312C08B819C81880F991F9C838B83BE
:100910008D819E8101969E838D838D819E81843001
:100920009105ECF218861F828F81988528960FB664
:10093000F894DEBF0FBECDBFCF91DF910895DF9356
:10094000CF93CDB7DEB728970FB6F894DEBF0FBEB2
:10095000CDBF98878F831E821D821C821B821A82C4
:100960001982E4E2F0E01082E5E2F0E01082A7E212
:10097000B0E0E7E2F0E08081807E8C93A7E2B0E017
:10098000E7E2F0E08081982F8F81892B8C938AE0B9
:1009900090E00E945D03A6E2B0E0E6E2F0E0808134
:1009A00080648C93E6E2F0E08081882F90E0807193
:1009B00090700097B9F3A6E2B0E0E6E2F0E0808143
:1009C00080618C93E4E2F0E08081882F90E09E8348
:1009D0008D83E5E2F0E08081882F90E09C838B831B
:1009E0008B819C81382F22278D819E81822B932B96
:1009F0009A83898389819A8128960FB6F894DEBFFD
:100A00000FBECDBFCF91DF910895DF93CF93CDB7C8
:100A1000DEB780E091E020E030E0B9014EE050E048
:100A20000E94B009CF91DF910895DF93CF93CDB7A6
:100A3000DEB780E091E020E030E0B9014EE050E028
:100A40000E94A00980910201909103012FEF8F3F36
:100A5000920731F48CED95E09093030180930201AD
:100A600080910401909105012FEF8F3F920731F49F
:100A70008CED95E09093050180930401809106012F
:100A8000909107012FEF8F3F920731F48CED95E0A5
:100A900090930701809306018091080190910901CC
:100AA0002FEF8F3F920731F48CED95E09093090181
:100AB0008093080180910A0190910B012FEF8F3FE5
:100AC000920731F48CED95E090930B0180930A012D
:100AD00080910C0190910D012FEF8F3F920731F41F
:100AE0008CED95E090930D0180930C010E94970589
:100AF000CF91DF910895DF93CF93CDB7DEB7A5E611
:100B0000B0E0E5E6F0E08081877F8C93CF91DF91C4
:100B10000895DF93CF93CDB7DEB7A5E6B0E0E5E665
:100B2000F0E0808188608C93CF91DF910895DF930E
:100B3000CF93CDB7DEB7EAE4F0E080910201909167
:100B4000030191838083E8E4F0E0809104019091B7
:100B5000050191838083E8E7F0E0809106019091A0
:100B6000070191838083E6E8F0E08091080190918D
:100B7000090191838083E4E8F0E080910A0190917B
:100B80000B0191838083E2E8F0E080910C01909169
:100B90000D0191838083CF91DF910895DF93CF93EF
:100BA00000D000D00F92CDB7DEB789837B836A83F4
:100BB0008981282F30E03D832C838C819D81833077
:100BC0009105E1F12C813D81243031055CF48C816B
:100BD0009D8181309105C1F02C813D81223031050C
:100BE00001F15FC08C819D818530910509F440C081
:100BF0002C813D812530310574F18C819D818630B9
:100C0000910509F442C04DC0EAE4F0E020910201F0
:100C1000309103018A819B81820F931F918380838E
:100C200040C0E8E4F0E020910401309105018A81A0
:100C30009B81820F931F9183808333C0E8E7F0E0AC
:100C400020910601309107018A819B81820F931FB9
:100C50009183808326C0E6E8F0E02091080130917E
:100C600009018A819B81820F931F9183808319C020
:100C7000E4E8F0E020910A0130910B018A819B8128
:100C8000820F931F918380830CC0E2E8F0E02091F3
:100C90000C0130910D018A819B81820F931F9183FA
:100CA00080830F900F900F900F900F90CF91DF9156
:100CB0000895DF93CF93CDB7DEB729970FB6F89499
:100CC000DEBF0FBECDBF8B837D836C835F834E837E
:100CD0008CE89AE09A8389838B81282F30E03987CA
:100CE0002887488559854330510509F440C08885D7
:100CF0009985843091055CF428853985213031054A
:100D0000C1F0488559854230510511F16BC0888585
:100D100099858530910509F448C0288539852530A5
:100D20003105A4F1488559854630510509F44CC078
:100D300059C0EAE4F0E02081318180910201909174
:100D40000301A901481B590BCA019A8389834AC030
:100D5000E8E4F0E020813181809104019091050167
:100D6000A901481B590BCA019A8389833BC0E8E754
:100D7000F0E0208131818091060190910701A90165
:100D8000481B590BCA019A8389832CC0E6E8F0E01E
:100D9000208131818091080190910901A901481BAE
:100DA000590BCA019A8389831DC0E4E8F0E02081D1
:100DB000318180910A0190910B01A901481B590BC7
:100DC000CA019A8389830EC0E2E8F0E02081318174
:100DD00080910C0190910D01A901481B590BCA018A
:100DE0009A83898329813A818C819D818217930717
:100DF000C4F40FC089819A8101979A8389832981DC
:100E00003A818B81B9010E94CE058E819F810E941B
:100E10005D0329813A818C819D818217930754F368
:100E20001EC029813A818C819D8128173907BCF425
:100E30000FC089819A8101969A83898329813A8199
:100E40008B81B9010E94CE058E819F810E945D0336
:100E500029813A818C819D812817390754F329967D
:100E60000FB6F894DEBF0FBECDBFCF91DF910895CE
:100E7000DF93CF93CDB7DEB7EBE3F0E01082E8E38A
:100E8000F0E01082E5E3F0E01082E2E3F0E01082AF
:100E9000E3E2F0E01082E2E6F0E01082E5E6F0E066
:100EA00088E08083EAE3F0E080EF8083E7E3F0E02E
:100EB0008FEF8083E4E3F0E08CEF8083E1E3F0E008
:100EC0008BE08083E2E2F0E08AEF8083E1E6F0E00D
:100ED0001082E4E6F0E08FE18083F894E7E2F0E04E
:100EE00080EC8083E6E2F0E083EE8083EEE8F0E0E1
:100EF0001082E3E5F0E08AE48083E1E5F0E08FEF43
:100F00008083E5E4F0E08AE08083E3E4F0E08CECC9
:100F10008083EFE4F0E088EA8083EEE4F0E082E1B1
:100F20008083E6E4F0E080E090E591838083EDE467
:100F3000F0E01082ECE4F0E01082EBE8F0E088EA08
:100F40008083EAE8F0E082E18083E0E8F0E080E09E
:100F500090E591838083E9E8F0E01082E8E8F0E032
:100F600010820E941505E8E9F0E01082E9E9F0E05E
:100F700089E18083EBE9F0E01082EDE9F0E086E0C2
:100F80008083EAE9F0E088E98083A7E5B0E0E7E55F
:100F9000F0E0808180688C9378940E94F10288EE62
:100FA00093E00E945D030E940603CF91DF910895B4
:100FB000DF93CF930F92CDB7DEB78983EBE9F0E0F3
:100FC0008081882F90E0807290700097B9F3ECE9EF
:100FD000F0E0898180830F90CF91DF910895DF93B6
:100FE000CF9300D0CDB7DEB79A8389830BC0E98158
:100FF000FA81208189819A8101969A838983822F3F
:101000000E94D807E981FA818081882381F70F90B7
:101010000F90CF91DF910895DF93CF9300D000D050
:1010200000D0CDB7DEB79E838D8303C08C810E9434
:10103000D8078D819E819B838A838D819E810196B5
:101040009E838D83EA81FB818491898389818C834E
:101050008C81882359F726960FB6F894DEBF0FBE11
:10106000CDBFCF91DF910895DF93CF9300D000D013
:10107000CDB7DEB79A8389836B834C838C81282F0D
:1010800030E089819A81820F931F9A8389830EC0F1
:10109000E981FA81208189819A8101969A838983E5
:1010A000822F0E94D8078B8181508B83E981FA813E
:1010B0008081882319F08B81882351F70F900F903E
:1010C0000F900F90CF91DF910895DF93CF93CDB71D
:1010D000DEB764970FB6F894DEBF0FBECDBF9B8B13
:1010E0008A8B6C8B8C89482F50E08A899B899E0162
:1010F0002F5F3F4FB9010E947F09CE0101960E94E8
:10110000EF0764960FB6F894DEBF0FBECDBFCF9148
:10111000DF910895DF93CF93CDB7DEB766970FB613
:10112000F894DEBF0FBECDBF9C8B8B8B6D8B4E8B2F
:101130008D89482F50E08B899C899E012E5F3F4FFF
:10114000B9010E947F09CE0102960E947609982F6C
:101150008E89891B8983898118167CF406C0898150
:101160008150898380E30E94D80789811816BCF3D7
:10117000CE0102960E94EF0709C089818195282F30
:10118000CE0102966E89422F0E94340866960FB6F1
:10119000F894DEBF0FBECDBFCF91DF9108951F92AF
:1011A0000F920FB60F9211242F933F938F939F931B
:1011B000EF93FF93DF93CF930F92CDB7DEB7ECE9B8
:1011C000F0E080818983809131018823B1F43091EE
:1011D0003301832F90E02981FC01EC5CFE4F2083DA
:1011E000832F8F5F8093330190913301809132017F
:1011F000981718F082E0809331010F90CF91DF9122
:10120000FF91EF919F918F913F912F910F900FBE82
:101210000F901F901895DF93CF930F92CDB7DEB745
:1012200089831092330189818093320110923101B8
:101230000F90CF91DF910895DF93CF93CDB7DEB7B5
:10124000809131018823E1F3CF91DF910895DF93FD
:10125000CF9300D00F92CDB7DEB79B838A831982DC
:1012600013C08981282F30E08A819B81DC01A20F85
:10127000B31F8981882F90E0FC01EC5CFE4F8081D8
:101280008C9389818F5F898390913201898189173D
:1012900040F381E0809331010F900F900F90CF9138
:1012A000DF910895DF93CF93CDB7DEB7109232016F
:1012B00081E080933101CF91DF910895DF93CF9347
:1012C00000D00F92CDB7DEB789837B836A83898193
:1012D0000E940B090E941C098A819B810E94270998
:1012E0000F900F900F90CF91DF910895FC01019026
:1012F0000020E9F7809590958E0F9F1F0895FB01C0
:101300009F01E8944230C4F04532B4F44A3029F4E5
:1013100097FB1EF4909581959F4F642F77270E942D
:10132000D709805D8A330CF0895D8193CB010097EA
:10133000A1F716F45DE251931082C9010C94C7091C
:10134000DC01CB01FC01E199FECF06C0FFBBEEBB87
:10135000E09A31960DB20D9241505040B8F7089581
:10136000DC01CB0103C02D910E94BB0941505040CC
:10137000D0F70895262FE199FECF9FBB8EBB2DBBE2
:101380000FB6F894E29AE19A0FBE01960895DC0137
:10139000FC01672F71917723E1F7329704C07C91AC
:1013A0006D9370836291AE17BF07C8F30895AA1BAF
:1013B000BB1B51E107C0AA1FBB1FA617B70710F040
:1013C000A61BB70B881F991F5A95A9F78095909572
:0A13D000BC01CD010895F894FFCF91
:00000001FF
