:100000000C9483000C9495000C9495000C9495002E
:100010000C9495000C9495000C9495000C9495000C
:100020000C9495000C94F8000C9495000C94950099
:100030000C9495000C9495000C9495000C949500EC
:100040000C9495000C9495000C9495000C949500DC
:100050000C9495000C9495000C9495000C949500CC
:100060000C9495000C9495000C9495000C949500BC
:100070000C9495000C9495000C94DC040C94950061
:100080000C9495000C9495000C94950028484558C4
:100090002920002844454329207C2000284F435430
:1000A00029207C20002842494E29207C2000436FD3
:1000B000756E7465723A200028484558292000283A
:1000C00044454329207C2000284F435429207C208C
:1000D000002842494E29207C2000436F756E7465CC
:1000E000723A20000A4A75737420612073696D703A
:1000F0006C6520636F756E7465722070726F6772C5
:10010000616D200A0A0011241FBECFEFD0E1DEBFCF
:10011000CDBF11E0A0E0B1E001C01D92A434B10751
:10012000E1F70E9497000C9424060C940000CF93F2
:10013000DF930E94240484EE90E00E94BB04C0E0A0
:10014000D0E0C436D10518F58AED90E00E94BB04DA
:10015000CE0162E00E94540581ED90E00E94BB0454
:10016000CE0168E00E94540588EC90E00E94BB0438
:10017000CE016AE00E9454058FEB90E00E94BB0420
:10018000CE0160E10E94540588EB90E026C08EEA23
:1001900090E00E94BB04CE0162E040E10E9476053F
:1001A00085EA90E00E94BB04CE0168E046E00E9430
:1001B00076058CE990E00E94BB04CE016AE046E03F
:1001C0000E94760583E990E00E94BB04CE0160E1C5
:1001D00044E00E9476058CE890E00E94BB048AE02F
:1001E0000E94A604219684E690E00E94B401A9CF63
:1001F0001F920F920FB60F9211248F939F938091AD
:100200002E0190912F01019690932F0180932E0142
:10021000809130018F5F8093300181508A3008F4E3
:100220006AC080911D0180FF09C080911E019091DC
:100230001F01019690931F0180931E0180911D0163
:1002400081FF09C080912001909121010196909336
:1002500021018093200180911D0182FF09C08091BE
:100260002201909123010196909323018093220112
:1002700080911D0183FF09C0809124019091250187
:100280000196909325018093240180911D0184FFA4
:1002900009C0809126019091270101969093270132
:1002A0008093260180911D0185FF09C0809128015E
:1002B00090912901019690932901809328018091C2
:1002C0001D0186FF09C080912A0190912B010196A2
:1002D00090932B0180932A0180911D0187FF09C013
:1002E00080912C0190912D01019690932D01809386
:1002F0002C01109230019F918F910F900FBE0F90A3
:100300001F901895E5E6F0E0808181608083808110
:100310008D7F80830895E5E6F0E080818E7F808385
:100320008081826080830895E5E6F0E080818160CD
:1003300080838081826080830895E5E6F0E080819B
:100340008E7F808380818D7F8083089510922F011E
:1003500010922E01282F30E080912E0190912F01D4
:1003600082179307C8F308959C010CC010922F01C7
:1003700010922E0180912E0190912F010A97D0F3B7
:10038000215030402115310589F708958AE683BF51
:1003900008958AE483BF089581BF089580E18BBBEF
:1003A00022E030E00AC010922F0110922E018091BD
:1003B0002E0190912F010A97D0F3215030408FEFFA
:1003C0002F3F380781F789B3682F70E040E050E095
:1003D00021E030E0C901862397234F5F5F4F8217EA
:1003E000930711F49A0192C04430510519F0220F7D
:1003F000331FF0CF80E28BBB22E030E00AC01092C6
:100400002F0110922E0180912E0190912F010A97B9
:10041000D0F3215030408FEF2F3F380781F789B359
:10042000682F70E040E050E021E030E0C901862311
:1004300097238217930721F49A012B5F3F4F66C0E1
:100440004F5F5F4F4430510519F0220F331FEECF3D
:1004500080E48BBB22E030E00AC010922F011092A2
:100460002E0180912E0190912F010A97D0F32150F7
:1004700030408FEF2F3F380781F789B3682F70E046
:1004800040E050E021E030E0C90186239723821745
:10049000930721F49A01275F3F4F38C04F5F5F4FAA
:1004A0004430510519F0220F331FEECF80E88BBB8B
:1004B00022E030E00AC010922F0110922E018091AC
:1004C0002E0190912F010A97D0F3215030408FEFE9
:1004D0002F3F380781F789B3682F70E040E050E084
:1004E00021E030E0C901862397238217930721F486
:1004F0009A01235F3F4F0AC04F5F5F4F4430510561
:1005000019F0220F331FEECF20E030E0C90108952B
:1005100014B815B897B1907E97B997B1982B97B941
:100520002AE030E00AC010922F0110922E01809133
:100530002E0190912F010A97D0F3215030408FEF78
:100540002F3F380781F7369A349BFECF349A24B177
:1005500045B1942F80E030E0282B392BC901089554
:10056000E5E6F0E08081877F80830895E5E6F0E0AE
:1005700080818860808308958091020190910301B9
:100580009BBD8ABD809104019091050199BD88BDF4
:1005900080910601909107019093790080937800F3
:1005A00080910801909109019093870080938600C3
:1005B00080910A0190910B019093850080938400B3
:1005C00080910C0190910D019093830080938200A3
:1005D0000895833009F1843030F4813059F082304D
:1005E00009F045C010C0853069F1853000F18630D2
:1005F000F1F533C08091020190910301860F971F9E
:100600009BBD8ABD08958091040190910501860FDC
:10061000971F99BD88BD08958091060190910701AB
:10062000860F971F909379008093780008958091AA
:10063000080190910901860F971F9093870080937E
:100640008600089580910A0190910B01860F971FF3
:100650009093850080938400089580910C0190917F
:100660000D01860F971F9093830080938200089559
:10067000DF92EF92FF920F931F93CF93DF93182F88
:100680007B01D42E052F8330F1F0843028F48130A3
:1006900061F0823039F410C0853039F18530E0F0F6
:1006A000863061F1CCE8DAE033C0CAB5DBB58091C1
:1006B0000201909103012AC0C8B5D9B58091040107
:1006C0009091050123C0C0917800D091790080916C
:1006D0000601909107011AC0C0918600D091870051
:1006E000809108019091090111C0C0918400D091BE
:1006F000850080910A0190910B0108C0C091820091
:10070000D091830080910C0190910D01C81BD90BF1
:10071000EC16FD06E4F42197812FBE010E94E90248
:100720008D2D902F9C010CC010922F0110922E0144
:1007300080912E0190912F010A97D0F321503040E3
:100740002115310589F7EC16FD062CF31CC0CE15DA
:10075000DF05CCF42196812FBE010E94E9028D2D88
:10076000902F9C010CC010922F0110922E018091AD
:100770002E0190912F010A97D0F32150304021157E
:10078000310529F3F0CFDF91CF911F910F91FF90A9
:10079000EF90DF90089580E091E060E070E04EE03F
:1007A00050E00E94D90580910201909103018F5F72
:1007B0009F4F31F48CED95E09093030180930201FB
:1007C00080910401909105018F5F9F4F31F48CED72
:1007D00095E090930501809304018091060190912A
:1007E00007018F5F9F4F31F48CED95E090930701E7
:1007F0008093060180910801909109018F5F9F4FBE
:1008000031F48CED95E0909309018093080180917B
:100810000A0190910B018F5F9F4F31F48CED95E0B1
:1008200090930B0180930A0180910C0190910D012E
:100830008F5F9F4F31F48CED95E090930D01809385
:100840000C010E94BC0208951BBA18BA15BA12BA5C
:1008500013B81092620088E08093650080EF8ABB35
:100860008FEF87BB8CEF84BB8BE081BB8AEF82B9B3
:10087000109261008FE180936400F89480EC87B956
:1008800083EE86B910928E008AE483BF8FEF81BF1A
:100890008AE085BD8CEC83BD38EA3FBD22E12EBDE8
:1008A00080E090E597BD86BD1DBC1CBC30938B00DD
:1008B00020938A0090938100809380001092890099
:1008C000109288000E94CB031092980089E18093D7
:1008D000990010929B0086E080939D0088E98093A8
:1008E0009A0087B7806887BF78948091650081609F
:1008F00080936500809165008D7F8093650028EE70
:1009000033E00AC010922F0110922E0180912E0127
:1009100090912F010A97D0F3215030408FEF2F3F55
:10092000380781F7809165008E7F80936500809104
:100930006500826080936500089580E091E060E04A
:1009400070E04EE050E00E94E9050895982F8091F4
:100950009B0085FFFCCF90939C000895FC0107C08D
:1009600080919B0085FFFCCF319690939C009081F5
:100970009923B1F708959C0106C080919B0085FFE3
:10098000FCCF90939C00F9012F5F3F4F94919923E6
:10099000A1F70895FC01E40FF11D08C080919B00B0
:1009A00085FFFCCF319690939C00615090819923F4
:1009B00011F0662399F708951F920F920FB60F92C8
:1009C00011248F939F93EF93FF93DF93CF930F9215
:1009D000CDB7DEB780919C00898380913101882357
:1009E00091F490913301E92FF0E08981EC5CFE4FA6
:1009F00080839F5F9093330180913201981718F0A4
:100A000082E0809331010F90CF91DF91FF91EF91C0
:100A10009F918F910F900FBE0F901F90189510927D
:100A20003301809332011092310108958091310198
:100A30008823E1F30895AC0120E00AC0E22FF0E042
:100A4000DF01AC5CBE4F8C91E40FF51F80832F5FFC
:100A500080913201281790F381E08093310108954D
:100A60001092320181E08093310108951092330198
:100A70008093320110923101809131018823E1F39A
:100A800090E00AC0E92FF0E0DF01AC5CBE4F8C9132
:100A9000E60FF71F80839F5F80913201981790F3D4
:100AA00081E08093310108950F931F93DF93CF93DB
:100AB000CDB7DEB761970FB6F894DEBF0FBECDBFDE
:100AC000462F8E010F5F1F4FB80150E00E94B805FE
:100AD000C8010E94AE0461960FB6F894DEBF0FBE47
:100AE000CDBFCF91DF911F910F910895FF920F938A
:100AF0001F93DF93CF93CDB7DEB761970FB6F8940E
:100B0000DEBF0FBECDBF262FF42E8E010F5F1F4F0D
:100B1000B801422F50E00E94B805F8010190002072
:100B2000E9F73197E01BF10B4F2D4E1B14167CF4A7
:100B300090E3415080919B0085FFFCCF90939C00F7
:100B40004423B9F7CE0101960E94AE0405C0419539
:100B5000C8016F2D0E94CA0461960FB6F894DEBFDB
:100B60000FBECDBFCF91DF911F910F91FF900895E0
:100B7000FB019F01E8944230C4F04532B4F44A309E
:100B800029F497FB1EF4909581959F4F642F77274A
:100B90000E941006805D8A330CF0895D8193CB0141
:100BA0000097A1F716F45DE251931082C9010C94ED
:100BB0000006DC01CB01FC01E199FECF06C0FFBBC2
:100BC000EEBBE09A31960DB20D9241505040B8F70D
:100BD0000895DC01CB0103C02D910E94F405415022
:100BE0005040D0F70895262FE199FECF9FBB8EBBD2
:100BF0002DBB0FB6F894E29AE19A0FBE01960895C4
:100C0000DC01FC01672F71917723E1F7329704C073
:100C10007C916D9370836291AE17BF07C8F30895FE
:100C2000AA1BBB1B51E107C0AA1FBB1FA617B70712
:100C300010F0A61BB70B881F991F5A95A9F780952E
:0C0C40009095BC01CD010895F894FFCF01
:00000001FF
